{
    "contractName": "SponsorNote",
    "abi": [
        {
            "inputs": [
                {
                    "internalType": "address",
                    "name": "_minter",
                    "type": "address"
                },
                {
                    "internalType": "address",
                    "name": "_profile",
                    "type": "address"
                },
                {
                    "internalType": "address",
                    "name": "_trustBounty",
                    "type": "address"
                },
                {
                    "internalType": "address",
                    "name": "_auditorNote",
                    "type": "address"
                },
                {
                    "internalType": "address",
                    "name": "_ssi",
                    "type": "address"
                }
            ],
            "stateMutability": "nonpayable",
            "type": "constructor"
        },
        {
            "anonymous": false,
            "inputs": [
                {
                    "indexed": true,
                    "internalType": "address",
                    "name": "owner",
                    "type": "address"
                },
                {
                    "indexed": true,
                    "internalType": "address",
                    "name": "approved",
                    "type": "address"
                },
                {
                    "indexed": true,
                    "internalType": "uint256",
                    "name": "tokenId",
                    "type": "uint256"
                }
            ],
            "name": "Approval",
            "type": "event"
        },
        {
            "anonymous": false,
            "inputs": [
                {
                    "indexed": true,
                    "internalType": "address",
                    "name": "owner",
                    "type": "address"
                },
                {
                    "indexed": true,
                    "internalType": "address",
                    "name": "operator",
                    "type": "address"
                },
                {
                    "indexed": false,
                    "internalType": "bool",
                    "name": "approved",
                    "type": "bool"
                }
            ],
            "name": "ApprovalForAll",
            "type": "event"
        },
        {
            "anonymous": false,
            "inputs": [
                {
                    "indexed": true,
                    "internalType": "address",
                    "name": "sponsor",
                    "type": "address"
                },
                {
                    "indexed": false,
                    "internalType": "string",
                    "name": "sponsorDescription",
                    "type": "string"
                },
                {
                    "indexed": false,
                    "internalType": "string",
                    "name": "avatar",
                    "type": "string"
                }
            ],
            "name": "CreateSponsorship",
            "type": "event"
        },
        {
            "anonymous": false,
            "inputs": [
                {
                    "indexed": true,
                    "internalType": "uint256",
                    "name": "protocolId",
                    "type": "uint256"
                },
                {
                    "indexed": false,
                    "internalType": "address",
                    "name": "sponsor",
                    "type": "address"
                }
            ],
            "name": "DeleteProtocol",
            "type": "event"
        },
        {
            "anonymous": false,
            "inputs": [
                {
                    "indexed": false,
                    "internalType": "address",
                    "name": "account",
                    "type": "address"
                }
            ],
            "name": "Paused",
            "type": "event"
        },
        {
            "anonymous": false,
            "inputs": [
                {
                    "indexed": true,
                    "internalType": "uint256",
                    "name": "protocolId",
                    "type": "uint256"
                },
                {
                    "indexed": false,
                    "internalType": "address",
                    "name": "sponsor",
                    "type": "address"
                },
                {
                    "indexed": false,
                    "internalType": "uint256",
                    "name": "paidPayable",
                    "type": "uint256"
                }
            ],
            "name": "PayInvoicePayable",
            "type": "event"
        },
        {
            "anonymous": false,
            "inputs": [
                {
                    "indexed": true,
                    "internalType": "address",
                    "name": "from",
                    "type": "address"
                },
                {
                    "indexed": true,
                    "internalType": "address",
                    "name": "to",
                    "type": "address"
                },
                {
                    "indexed": true,
                    "internalType": "uint256",
                    "name": "tokenId",
                    "type": "uint256"
                }
            ],
            "name": "Transfer",
            "type": "event"
        },
        {
            "anonymous": false,
            "inputs": [
                {
                    "indexed": false,
                    "internalType": "address",
                    "name": "account",
                    "type": "address"
                }
            ],
            "name": "Unpaused",
            "type": "event"
        },
        {
            "anonymous": false,
            "inputs": [
                {
                    "indexed": true,
                    "internalType": "uint256",
                    "name": "protocolId",
                    "type": "uint256"
                },
                {
                    "indexed": false,
                    "internalType": "address",
                    "name": "sponsor",
                    "type": "address"
                },
                {
                    "indexed": false,
                    "internalType": "address",
                    "name": "owner",
                    "type": "address"
                },
                {
                    "indexed": false,
                    "internalType": "string",
                    "name": "media",
                    "type": "string"
                },
                {
                    "indexed": false,
                    "internalType": "string",
                    "name": "description",
                    "type": "string"
                }
            ],
            "name": "UpdateProtocol",
            "type": "event"
        },
        {
            "anonymous": false,
            "inputs": [
                {
                    "indexed": true,
                    "internalType": "address",
                    "name": "sponsor",
                    "type": "address"
                },
                {
                    "indexed": false,
                    "internalType": "string",
                    "name": "sponsorDescription",
                    "type": "string"
                },
                {
                    "indexed": false,
                    "internalType": "string",
                    "name": "avatar",
                    "type": "string"
                },
                {
                    "indexed": false,
                    "internalType": "string",
                    "name": "applicationLink",
                    "type": "string"
                },
                {
                    "indexed": false,
                    "internalType": "string[]",
                    "name": "contactChannels",
                    "type": "string[]"
                },
                {
                    "indexed": false,
                    "internalType": "string[]",
                    "name": "contacts",
                    "type": "string[]"
                },
                {
                    "indexed": false,
                    "internalType": "string[]",
                    "name": "workspaces",
                    "type": "string[]"
                },
                {
                    "indexed": false,
                    "internalType": "string[]",
                    "name": "countries",
                    "type": "string[]"
                },
                {
                    "indexed": false,
                    "internalType": "string[]",
                    "name": "cities",
                    "type": "string[]"
                },
                {
                    "indexed": false,
                    "internalType": "string[]",
                    "name": "products",
                    "type": "string[]"
                }
            ],
            "name": "UpdateSponsorDescription",
            "type": "event"
        },
        {
            "anonymous": false,
            "inputs": [
                {
                    "indexed": true,
                    "internalType": "address",
                    "name": "sponsor",
                    "type": "address"
                },
                {
                    "indexed": false,
                    "internalType": "uint256",
                    "name": "likes",
                    "type": "uint256"
                },
                {
                    "indexed": false,
                    "internalType": "uint256",
                    "name": "dislikes",
                    "type": "uint256"
                },
                {
                    "indexed": false,
                    "internalType": "bool",
                    "name": "like",
                    "type": "bool"
                }
            ],
            "name": "Voted",
            "type": "event"
        },
        {
            "anonymous": false,
            "inputs": [
                {
                    "indexed": true,
                    "internalType": "address",
                    "name": "from",
                    "type": "address"
                },
                {
                    "indexed": false,
                    "internalType": "address",
                    "name": "sponsor",
                    "type": "address"
                },
                {
                    "indexed": false,
                    "internalType": "uint256",
                    "name": "amount",
                    "type": "uint256"
                }
            ],
            "name": "Withdraw",
            "type": "event"
        },
        {
            "inputs": [
                {
                    "internalType": "address",
                    "name": "to",
                    "type": "address"
                },
                {
                    "internalType": "uint256",
                    "name": "tokenId",
                    "type": "uint256"
                }
            ],
            "name": "approve",
            "outputs": [],
            "stateMutability": "nonpayable",
            "type": "function"
        },
        {
            "inputs": [],
            "name": "auditorNote",
            "outputs": [
                {
                    "internalType": "address",
                    "name": "",
                    "type": "address"
                }
            ],
            "stateMutability": "view",
            "type": "function"
        },
        {
            "inputs": [
                {
                    "internalType": "address",
                    "name": "owner",
                    "type": "address"
                }
            ],
            "name": "balanceOf",
            "outputs": [
                {
                    "internalType": "uint256",
                    "name": "",
                    "type": "uint256"
                }
            ],
            "stateMutability": "view",
            "type": "function"
        },
        {
            "inputs": [
                {
                    "internalType": "address",
                    "name": "_sponsor",
                    "type": "address"
                },
                {
                    "internalType": "uint256",
                    "name": "_tokenId",
                    "type": "uint256"
                }
            ],
            "name": "claimRevenueFromNote",
            "outputs": [],
            "stateMutability": "nonpayable",
            "type": "function"
        },
        {
            "inputs": [
                {
                    "internalType": "address",
                    "name": "_sponsor",
                    "type": "address"
                }
            ],
            "name": "deleteSponsor",
            "outputs": [],
            "stateMutability": "nonpayable",
            "type": "function"
        },
        {
            "inputs": [],
            "name": "devaddr_",
            "outputs": [
                {
                    "internalType": "address",
                    "name": "",
                    "type": "address"
                }
            ],
            "stateMutability": "view",
            "type": "function"
        },
        {
            "inputs": [
                {
                    "internalType": "uint256",
                    "name": "protocolId",
                    "type": "uint256"
                }
            ],
            "name": "emitDeleteProtocol",
            "outputs": [],
            "stateMutability": "nonpayable",
            "type": "function"
        },
        {
            "inputs": [
                {
                    "internalType": "uint256",
                    "name": "protocolId",
                    "type": "uint256"
                },
                {
                    "internalType": "uint256",
                    "name": "paidPayable",
                    "type": "uint256"
                }
            ],
            "name": "emitPayInvoicePayable",
            "outputs": [],
            "stateMutability": "nonpayable",
            "type": "function"
        },
        {
            "inputs": [
                {
                    "internalType": "uint256",
                    "name": "protocolId",
                    "type": "uint256"
                },
                {
                    "internalType": "address",
                    "name": "owner",
                    "type": "address"
                },
                {
                    "internalType": "string",
                    "name": "media",
                    "type": "string"
                },
                {
                    "internalType": "string",
                    "name": "description",
                    "type": "string"
                }
            ],
            "name": "emitUpdateProtocol",
            "outputs": [],
            "stateMutability": "nonpayable",
            "type": "function"
        },
        {
            "inputs": [
                {
                    "internalType": "address",
                    "name": "_sponsor",
                    "type": "address"
                },
                {
                    "internalType": "string",
                    "name": "_desc",
                    "type": "string"
                },
                {
                    "internalType": "string",
                    "name": "_avatar",
                    "type": "string"
                },
                {
                    "internalType": "string",
                    "name": "applicationLink",
                    "type": "string"
                },
                {
                    "internalType": "string[]",
                    "name": "_contactChannels",
                    "type": "string[]"
                },
                {
                    "internalType": "string[]",
                    "name": "_contacts",
                    "type": "string[]"
                },
                {
                    "internalType": "string[]",
                    "name": "_workspaces",
                    "type": "string[]"
                },
                {
                    "internalType": "string[]",
                    "name": "_countries",
                    "type": "string[]"
                },
                {
                    "internalType": "string[]",
                    "name": "_cities",
                    "type": "string[]"
                },
                {
                    "internalType": "string[]",
                    "name": "_products",
                    "type": "string[]"
                }
            ],
            "name": "emitUpdateSponsorDescription",
            "outputs": [],
            "stateMutability": "nonpayable",
            "type": "function"
        },
        {
            "inputs": [
                {
                    "internalType": "address",
                    "name": "from",
                    "type": "address"
                },
                {
                    "internalType": "uint256",
                    "name": "amount",
                    "type": "uint256"
                }
            ],
            "name": "emitWithdraw",
            "outputs": [],
            "stateMutability": "nonpayable",
            "type": "function"
        },
        {
            "inputs": [
                {
                    "internalType": "uint256",
                    "name": "_start",
                    "type": "uint256"
                }
            ],
            "name": "getAllSponsors",
            "outputs": [
                {
                    "internalType": "address[]",
                    "name": "sponsors",
                    "type": "address[]"
                }
            ],
            "stateMutability": "view",
            "type": "function"
        },
        {
            "inputs": [
                {
                    "internalType": "uint256",
                    "name": "tokenId",
                    "type": "uint256"
                }
            ],
            "name": "getApproved",
            "outputs": [
                {
                    "internalType": "address",
                    "name": "",
                    "type": "address"
                }
            ],
            "stateMutability": "view",
            "type": "function"
        },
        {
            "inputs": [
                {
                    "internalType": "address",
                    "name": "_sponsor",
                    "type": "address"
                },
                {
                    "internalType": "address",
                    "name": "_protocol",
                    "type": "address"
                },
                {
                    "internalType": "uint256",
                    "name": "_numPeriods",
                    "type": "uint256"
                }
            ],
            "name": "getDuePayable",
            "outputs": [
                {
                    "internalType": "uint256",
                    "name": "",
                    "type": "uint256"
                },
                {
                    "internalType": "uint256",
                    "name": "",
                    "type": "uint256"
                },
                {
                    "internalType": "uint256",
                    "name": "",
                    "type": "uint256"
                }
            ],
            "stateMutability": "view",
            "type": "function"
        },
        {
            "inputs": [
                {
                    "internalType": "uint256",
                    "name": "_ssidAuditorProfileId",
                    "type": "uint256"
                }
            ],
            "name": "getGaugeNColor",
            "outputs": [
                {
                    "internalType": "address",
                    "name": "",
                    "type": "address"
                },
                {
                    "internalType": "enum COLOR",
                    "name": "",
                    "type": "uint8"
                }
            ],
            "stateMutability": "view",
            "type": "function"
        },
        {
            "inputs": [
                {
                    "internalType": "uint256",
                    "name": "tm1",
                    "type": "uint256"
                },
                {
                    "internalType": "uint256",
                    "name": "tm2",
                    "type": "uint256"
                },
                {
                    "internalType": "uint256",
                    "name": "_period",
                    "type": "uint256"
                }
            ],
            "name": "getNumPeriods",
            "outputs": [
                {
                    "internalType": "uint256",
                    "name": "",
                    "type": "uint256"
                }
            ],
            "stateMutability": "pure",
            "type": "function"
        },
        {
            "inputs": [
                {
                    "internalType": "address",
                    "name": "owner",
                    "type": "address"
                },
                {
                    "internalType": "address",
                    "name": "operator",
                    "type": "address"
                }
            ],
            "name": "isApprovedForAll",
            "outputs": [
                {
                    "internalType": "bool",
                    "name": "",
                    "type": "bool"
                }
            ],
            "stateMutability": "view",
            "type": "function"
        },
        {
            "inputs": [
                {
                    "internalType": "address",
                    "name": "_sponsor",
                    "type": "address"
                }
            ],
            "name": "isGauge",
            "outputs": [
                {
                    "internalType": "bool",
                    "name": "",
                    "type": "bool"
                }
            ],
            "stateMutability": "view",
            "type": "function"
        },
        {
            "inputs": [],
            "name": "minBountyPercent",
            "outputs": [
                {
                    "internalType": "uint256",
                    "name": "",
                    "type": "uint256"
                }
            ],
            "stateMutability": "view",
            "type": "function"
        },
        {
            "inputs": [],
            "name": "name",
            "outputs": [
                {
                    "internalType": "string",
                    "name": "",
                    "type": "string"
                }
            ],
            "stateMutability": "view",
            "type": "function"
        },
        {
            "inputs": [
                {
                    "internalType": "address",
                    "name": "",
                    "type": "address"
                },
                {
                    "internalType": "uint256",
                    "name": "",
                    "type": "uint256"
                }
            ],
            "name": "notes",
            "outputs": [
                {
                    "internalType": "uint256",
                    "name": "due",
                    "type": "uint256"
                },
                {
                    "internalType": "uint256",
                    "name": "timer",
                    "type": "uint256"
                },
                {
                    "internalType": "uint256",
                    "name": "tokenId",
                    "type": "uint256"
                },
                {
                    "internalType": "address",
                    "name": "token",
                    "type": "address"
                },
                {
                    "internalType": "address",
                    "name": "protocol",
                    "type": "address"
                }
            ],
            "stateMutability": "view",
            "type": "function"
        },
        {
            "inputs": [
                {
                    "internalType": "uint256",
                    "name": "tokenId",
                    "type": "uint256"
                }
            ],
            "name": "ownerOf",
            "outputs": [
                {
                    "internalType": "address",
                    "name": "",
                    "type": "address"
                }
            ],
            "stateMutability": "view",
            "type": "function"
        },
        {
            "inputs": [],
            "name": "paused",
            "outputs": [
                {
                    "internalType": "bool",
                    "name": "",
                    "type": "bool"
                }
            ],
            "stateMutability": "view",
            "type": "function"
        },
        {
            "inputs": [
                {
                    "internalType": "address",
                    "name": "",
                    "type": "address"
                }
            ],
            "name": "percentiles",
            "outputs": [
                {
                    "internalType": "uint256",
                    "name": "",
                    "type": "uint256"
                }
            ],
            "stateMutability": "view",
            "type": "function"
        },
        {
            "inputs": [
                {
                    "internalType": "uint256",
                    "name": "",
                    "type": "uint256"
                }
            ],
            "name": "profiles",
            "outputs": [
                {
                    "internalType": "address",
                    "name": "",
                    "type": "address"
                }
            ],
            "stateMutability": "view",
            "type": "function"
        },
        {
            "inputs": [
                {
                    "internalType": "address",
                    "name": "from",
                    "type": "address"
                },
                {
                    "internalType": "address",
                    "name": "to",
                    "type": "address"
                },
                {
                    "internalType": "uint256",
                    "name": "tokenId",
                    "type": "uint256"
                }
            ],
            "name": "safeTransferFrom",
            "outputs": [],
            "stateMutability": "nonpayable",
            "type": "function"
        },
        {
            "inputs": [
                {
                    "internalType": "address",
                    "name": "from",
                    "type": "address"
                },
                {
                    "internalType": "address",
                    "name": "to",
                    "type": "address"
                },
                {
                    "internalType": "uint256",
                    "name": "tokenId",
                    "type": "uint256"
                },
                {
                    "internalType": "bytes",
                    "name": "_data",
                    "type": "bytes"
                }
            ],
            "name": "safeTransferFrom",
            "outputs": [],
            "stateMutability": "nonpayable",
            "type": "function"
        },
        {
            "inputs": [
                {
                    "internalType": "address",
                    "name": "operator",
                    "type": "address"
                },
                {
                    "internalType": "bool",
                    "name": "approved",
                    "type": "bool"
                }
            ],
            "name": "setApprovalForAll",
            "outputs": [],
            "stateMutability": "nonpayable",
            "type": "function"
        },
        {
            "inputs": [
                {
                    "internalType": "address",
                    "name": "_factory",
                    "type": "address"
                }
            ],
            "name": "setFactory",
            "outputs": [],
            "stateMutability": "nonpayable",
            "type": "function"
        },
        {
            "inputs": [
                {
                    "internalType": "bytes4",
                    "name": "interfaceId",
                    "type": "bytes4"
                }
            ],
            "name": "supportsInterface",
            "outputs": [
                {
                    "internalType": "bool",
                    "name": "",
                    "type": "bool"
                }
            ],
            "stateMutability": "view",
            "type": "function"
        },
        {
            "inputs": [],
            "name": "symbol",
            "outputs": [
                {
                    "internalType": "string",
                    "name": "",
                    "type": "string"
                }
            ],
            "stateMutability": "view",
            "type": "function"
        },
        {
            "inputs": [],
            "name": "tokenId",
            "outputs": [
                {
                    "internalType": "uint256",
                    "name": "",
                    "type": "uint256"
                }
            ],
            "stateMutability": "view",
            "type": "function"
        },
        {
            "inputs": [
                {
                    "internalType": "uint256",
                    "name": "_tokenId",
                    "type": "uint256"
                }
            ],
            "name": "tokenURI",
            "outputs": [
                {
                    "internalType": "string",
                    "name": "output",
                    "type": "string"
                }
            ],
            "stateMutability": "view",
            "type": "function"
        },
        {
            "inputs": [],
            "name": "tradingFee",
            "outputs": [
                {
                    "internalType": "uint256",
                    "name": "",
                    "type": "uint256"
                }
            ],
            "stateMutability": "view",
            "type": "function"
        },
        {
            "inputs": [
                {
                    "internalType": "address",
                    "name": "_sponsor",
                    "type": "address"
                },
                {
                    "internalType": "address",
                    "name": "_to",
                    "type": "address"
                },
                {
                    "internalType": "uint256",
                    "name": "_numPeriods",
                    "type": "uint256"
                }
            ],
            "name": "transferDueToNote",
            "outputs": [],
            "stateMutability": "nonpayable",
            "type": "function"
        },
        {
            "inputs": [
                {
                    "internalType": "address",
                    "name": "from",
                    "type": "address"
                },
                {
                    "internalType": "address",
                    "name": "to",
                    "type": "address"
                },
                {
                    "internalType": "uint256",
                    "name": "tokenId",
                    "type": "uint256"
                }
            ],
            "name": "transferFrom",
            "outputs": [],
            "stateMutability": "nonpayable",
            "type": "function"
        },
        {
            "inputs": [
                {
                    "internalType": "address",
                    "name": "",
                    "type": "address"
                }
            ],
            "name": "treasuryFees",
            "outputs": [
                {
                    "internalType": "uint256",
                    "name": "",
                    "type": "uint256"
                }
            ],
            "stateMutability": "view",
            "type": "function"
        },
        {
            "inputs": [],
            "name": "trustBounty",
            "outputs": [
                {
                    "internalType": "address",
                    "name": "",
                    "type": "address"
                }
            ],
            "stateMutability": "view",
            "type": "function"
        },
        {
            "inputs": [
                {
                    "internalType": "address",
                    "name": "_devaddr",
                    "type": "address"
                }
            ],
            "name": "updateDev",
            "outputs": [],
            "stateMutability": "nonpayable",
            "type": "function"
        },
        {
            "inputs": [
                {
                    "internalType": "address",
                    "name": "_last_gauge",
                    "type": "address"
                },
                {
                    "internalType": "address",
                    "name": "_user",
                    "type": "address"
                },
                {
                    "internalType": "uint256",
                    "name": "_profileId",
                    "type": "uint256"
                },
                {
                    "internalType": "string",
                    "name": "_sponsorDescription",
                    "type": "string"
                },
                {
                    "internalType": "string",
                    "name": "avatar",
                    "type": "string"
                }
            ],
            "name": "updateGauge",
            "outputs": [],
            "stateMutability": "nonpayable",
            "type": "function"
        },
        {
            "inputs": [
                {
                    "internalType": "uint256",
                    "name": "_minBountyPercent",
                    "type": "uint256"
                }
            ],
            "name": "updateMinBountyPercent",
            "outputs": [],
            "stateMutability": "nonpayable",
            "type": "function"
        },
        {
            "inputs": [
                {
                    "internalType": "uint256",
                    "name": "_tradingFee",
                    "type": "uint256"
                }
            ],
            "name": "updateTradingFee",
            "outputs": [],
            "stateMutability": "nonpayable",
            "type": "function"
        },
        {
            "inputs": [
                {
                    "internalType": "address",
                    "name": "_sponsor",
                    "type": "address"
                },
                {
                    "internalType": "uint256",
                    "name": "profileId",
                    "type": "uint256"
                },
                {
                    "internalType": "bool",
                    "name": "like",
                    "type": "bool"
                }
            ],
            "name": "vote",
            "outputs": [],
            "stateMutability": "nonpayable",
            "type": "function"
        },
        {
            "inputs": [
                {
                    "internalType": "uint256",
                    "name": "",
                    "type": "uint256"
                },
                {
                    "internalType": "address",
                    "name": "",
                    "type": "address"
                }
            ],
            "name": "voted",
            "outputs": [
                {
                    "internalType": "int256",
                    "name": "",
                    "type": "int256"
                }
            ],
            "stateMutability": "view",
            "type": "function"
        },
        {
            "inputs": [
                {
                    "internalType": "address",
                    "name": "",
                    "type": "address"
                }
            ],
            "name": "votes",
            "outputs": [
                {
                    "internalType": "uint256",
                    "name": "likes",
                    "type": "uint256"
                },
                {
                    "internalType": "uint256",
                    "name": "dislikes",
                    "type": "uint256"
                }
            ],
            "stateMutability": "view",
            "type": "function"
        },
        {
            "inputs": [
                {
                    "internalType": "address",
                    "name": "_token",
                    "type": "address"
                }
            ],
            "name": "withdrawFees",
            "outputs": [
                {
                    "internalType": "uint256",
                    "name": "_amount",
                    "type": "uint256"
                }
            ],
            "stateMutability": "nonpayable",
            "type": "function"
        }
    ],
    "bytecode": "60806040526001600d556064600e556001600f556001601d553480156200002557600080fd5b506040516200416d3803806200416d833981016040819052620000489162000144565b6040518060400160405280600b81526020016a53706f6e736f724e6f746560a81b815250604051806040016040528060088152602001673729b837b739b7b960c11b81525081600090816200009e919062000259565b506001620000ad828262000259565b50506006805460ff191690555060098054336001600160a01b031991821617909155601c805482166001600160a01b0397881617905560118054821695871695909517909455600a805485169386169390931790925560128054841691851691909117905560178054909216921691909117905562000325565b80516001600160a01b03811681146200013f57600080fd5b919050565b600080600080600060a086880312156200015d57600080fd5b620001688662000127565b9450620001786020870162000127565b9350620001886040870162000127565b9250620001986060870162000127565b9150620001a86080870162000127565b90509295509295909350565b634e487b7160e01b600052604160045260246000fd5b600181811c90821680620001df57607f821691505b6020821081036200020057634e487b7160e01b600052602260045260246000fd5b50919050565b601f8211156200025457600081815260208120601f850160051c810160208610156200022f5750805b601f850160051c820191505b8181101562000250578281556001016200023b565b5050505b505050565b81516001600160401b03811115620002755762000275620001b4565b6200028d81620002868454620001ca565b8462000206565b602080601f831160018114620002c55760008415620002ac5750858301515b600019600386901b1c1916600185901b17855562000250565b600085815260208120601f198616915b82811015620002f657888601518255948401946001909101908401620002d5565b5085821015620003155787850151600019600388901b60f8161c191681555b5050505050600190811b01905550565b613e3880620003356000396000f3fe608060405234801561001057600080fd5b506004361061028a5760003560e01c806380bec6d11161015c578063c3a292a9116100ce578063e0b117ff11610087578063e0b117ff1461063c578063e1a02577146106c4578063e1a67828146106d7578063e985e9c5146106ea578063f23ec6f8146106fd578063f58f8dff1461071057600080fd5b8063c3a292a9146105a1578063c87b56dd146105b4578063d6b59e84146105c7578063d8bff5a5146105da578063dabb036d14610616578063dde4d41a1461062957600080fd5b8063aa79979b11610120578063aa79979b1461050c578063b014da211461051f578063b88d4fde14610532578063bbb9839a14610545578063c2b753ad14610558578063c36fe3d61461057857600080fd5b806380bec6d1146104b857806391862ccf146104cb578063934c1938146104de57806395d89b41146104f1578063a22cb465146104f957600080fd5b806332172e991161020057806356f43352116101b957806356f43352146104585780635bb47808146104615780635c975abb146104745780636352211e1461047f5780636f61a42d1461049257806370a08231146104a557600080fd5b806332172e99146103ca5780633946ea5c146103d357806339932f13146103e657806342842e0e146103f95780634a1396ef1461040c5780635277b4ae1461042d57600080fd5b806317d70f7c1161025257806317d70f7c1461032d57806318d3bc29146103365780631ea68e76146103495780632241b6191461036957806323b872dd146103895780632e8cc7751461039c57600080fd5b806301ffc9a71461028f57806306fdde03146102b7578063081812fc146102cc578063095ea7b3146102f7578063164e68de1461030c575b600080fd5b6102a261029d366004612d87565b610723565b60405190151581526020015b60405180910390f35b6102bf610775565b6040516102ae9190612df4565b6102df6102da366004612e07565b610807565b6040516001600160a01b0390911681526020016102ae565b61030a610305366004612e40565b6108a1565b005b61031f61031a366004612e6c565b6109b6565b6040519081526020016102ae565b61031f600d5481565b61030a610344366004612e89565b610a13565b61031f610357366004612e6c565b60166020526000908152604090205481565b61031f610377366004612e6c565b600b6020526000908152604090205481565b61030a610397366004612eab565b610a67565b6103af6103aa366004612eab565b610a98565b604080519384526020840192909252908201526060016102ae565b61031f600f5481565b6012546102df906001600160a01b031681565b61030a6103f4366004612e07565b610c45565b61030a610407366004612eab565b610c91565b61041f61041a366004612e07565b610cac565b6040516102ae929190612eec565b61031f61043b366004612f27565b601a60209081526000928352604080842090915290825290205481565b61031f600e5481565b61030a61046f366004612e6c565b610ce7565b60065460ff166102a2565b6102df61048d366004612e07565b610d20565b61030a6104a0366004612e40565b610d97565b61031f6104b3366004612e6c565b611066565b61031f6104c6366004612f57565b6110ed565b6009546102df906001600160a01b031681565b61030a6104ec366004612e6c565b61113f565b6102bf611178565b61030a610507366004612f91565b611187565b6102a261051a366004612e6c565b611196565b61030a61052d366004612e40565b6111a3565b61030a61054036600461306c565b6111f8565b61030a610553366004612eab565b611230565b61056b610566366004612e07565b6115e9565b6040516102ae91906130ec565b6102df610586366004612e07565b6018602052600090815260409020546001600160a01b031681565b61030a6105af366004612e6c565b6116a4565b6102bf6105c2366004612e07565b611734565b61030a6105d53660046131f8565b611842565b6106016105e8366004612e6c565b6019602052600090815260409020805460019091015482565b604080519283526020830191909152016102ae565b600a546102df906001600160a01b031681565b61030a61063736600461336f565b611932565b61069061064a366004612e40565b600c602090815260009283526040808420909152908252902080546001820154600283015460038401546004909401549293919290916001600160a01b03908116911685565b604080519586526020860194909452928401919091526001600160a01b03908116606084015216608082015260a0016102ae565b61030a6106d23660046133e3565b61198a565b61030a6106e5366004612e07565b611d08565b6102a26106f8366004613425565b611d24565b61030a61070b366004613453565b611d52565b61030a61071e366004612e07565b611e59565b60006001600160e01b031982166380ac58cd60e01b148061075457506001600160e01b03198216635b5e139f60e01b145b8061076f57506301ffc9a760e01b6001600160e01b03198316145b92915050565b606060008054610784906134e6565b80601f01602080910402602001604051908101604052809291908181526020018280546107b0906134e6565b80156107fd5780601f106107d2576101008083540402835291602001916107fd565b820191906000526020600020905b8154815290600101906020018083116107e057829003601f168201915b5050505050905090565b6000818152600260205260408120546001600160a01b03166108855760405162461bcd60e51b815260206004820152602c60248201527f4552433732313a20617070726f76656420717565727920666f72206e6f6e657860448201526b34b9ba32b73a103a37b5b2b760a11b60648201526084015b60405180910390fd5b506000908152600460205260409020546001600160a01b031690565b60006108ac82610d20565b9050806001600160a01b0316836001600160a01b0316036109195760405162461bcd60e51b815260206004820152602160248201527f4552433732313a20617070726f76616c20746f2063757272656e74206f776e656044820152603960f91b606482015260840161087c565b336001600160a01b038216148061093557506109358133611d24565b6109a75760405162461bcd60e51b815260206004820152603860248201527f4552433732313a20617070726f76652063616c6c6572206973206e6f74206f7760448201527f6e6572206e6f7220617070726f76656420666f7220616c6c0000000000000000606482015260840161087c565b6109b18383611e75565b505050565b601c546000906001600160a01b031633146109d057600080fd5b506001600160a01b0381166000818152600b6020526040902054906109f6903383611ee3565b6001600160a01b039091166000908152600b602052604081205590565b610a1e600733611f35565b610a2757600080fd5b604080513381526020810183905283917f8f825273e8309a4cff7e7b5eab67af4352a9410fdf2acd59cab3bf78dbe3736e91015b60405180910390a25050565b610a713382611f57565b610a8d5760405162461bcd60e51b815260040161087c9061351a565b6109b183838361202e565b604051632f5d833560e21b81526001600160a01b03838116600483015260009182918291829188169063bd760cd490602401602060405180830381865afa158015610ae7573d6000803e3d6000fd5b505050506040513d601f19601f82011682018060405250810190610b0b919061356b565b90506000806000808a6001600160a01b031663e8ada04b866040518263ffffffff1660e01b8152600401610b4191815260200190565b61010060405180830381865afa158015610b5f573d6000803e3d6000fd5b505050506040513d601f19601f82011682018060405250810190610b839190613584565b9750975097509750505050506000610b9c8242856110ed565b9050610ba88a8261360b565b905083610bb5828761361e565b1115610c165783610bc6828761361e565b610bd09190613635565b82610bdb838661361e565b610be5919061360b565b8686610bf1858361361e565b610bfb9190613635565b610c05919061365e565b985098509850505050505050610c3c565b600082610c23858461361e565b610c2d919061360b565b60009850985098505050505050505b93509350939050565b610c50600733611f35565b610c5957600080fd5b60405133815281907fd8433d56b576859823e4e59e7998c03f7a6ba26ace429a1dab9a23178158e9e79060200160405180910390a250565b6109b1838383604051806020016040528060008152506111f8565b6000818152601860209081526040808320546001600160a01b03168084526016909252822054829190610cde906121d5565b91509150915091565b6009546001600160a01b03163314610cfe57600080fd5b601080546001600160a01b0319166001600160a01b0392909216919091179055565b6000818152600260205260408120546001600160a01b03168061076f5760405162461bcd60e51b815260206004820152602960248201527f4552433732313a206f776e657220717565727920666f72206e6f6e657869737460448201526832b73a103a37b5b2b760b91b606482015260840161087c565b601d54600114610da657600080fd5b6002601d55610db6600783611f35565b8015610dd2575033610dc782610d20565b6001600160a01b0316145b610ddb57600080fd5b6001600160a01b0382166000908152600c602090815260408083208484529091529020600101544211610e3e5760405162461bcd60e51b815260206004820152600b60248201526a4e6f74207965742064756560a81b604482015260640161087c565b610e4781612217565b600e546001600160a01b0383166000908152600c60209081526040808320858452909152812054909161271091610e7e919061361e565b610e88919061365e565b6001600160a01b038481166000818152600c60209081526040808320888452909152902060048101549054939450909263a4706a3a9233921690610ecd908690613635565b6040516001600160e01b031960e086901b1681526001600160a01b0393841660048201529290911660248301526044820152606401600060405180830381600087803b158015610f1c57600080fd5b505af1158015610f30573d6000803e3d6000fd5b505050506001600160a01b038381166000818152600c60209081526040808320878452909152908190206004908101549151635238351d60e11b8152309181019190915292166024830152604482018390529063a4706a3a90606401600060405180830381600087803b158015610fa657600080fd5b505af1158015610fba573d6000803e3d6000fd5b505050506001600160a01b038381166000908152600c602090815260408083208684528252808320600301549093168252600b9052908120805483929061100290849061360b565b9091555050506001600160a01b039091166000908152600c60209081526040808320938352929052908120818155600180820183905560028201929092556003810180546001600160a01b0319908116909155600490910180549091169055601d55565b60006001600160a01b0382166110d15760405162461bcd60e51b815260206004820152602a60248201527f4552433732313a2062616c616e636520717565727920666f7220746865207a65604482015269726f206164647265737360b01b606482015260840161087c565b506001600160a01b031660009081526003602052604090205490565b60008315806110fa575082155b8061110457508383105b1561111157506000611138565b60008211611120576001611135565b8161112b8585613635565b611135919061365e565b90505b9392505050565b6009546001600160a01b0316331461115657600080fd5b600980546001600160a01b0319166001600160a01b0392909216919091179055565b606060018054610784906134e6565b6111923383836122be565b5050565b600061076f600783611f35565b6111ae600733611f35565b6111b757600080fd5b60408051338152602081018390526001600160a01b038416917f9b1bfa7fa9ee420a16e124f794c35ac9f90472acc99140eb2f6447c714cad8eb9101610a5b565b6112023383611f57565b61121e5760405162461bcd60e51b815260040161087c9061351a565b61122a8484848461238c565b50505050565b601d5460011461123f57600080fd5b6002601d5561124f600784611f35565b61125857600080fd5b604051632f5d833560e21b81523360048201526000906001600160a01b0385169063bd760cd490602401602060405180830381865afa15801561129f573d6000803e3d6000fd5b505050506040513d601f19601f820116820180604052508101906112c3919061356b565b90506000806112d3863386610a98565b509150915060008211801561136b5750856001600160a01b031663f93f2bb46040518163ffffffff1660e01b8152600401602060405180830381865afa158015611321573d6000803e3d6000fd5b505050506040513d601f19601f82011682018060405250810190611345919061356b565b6001600160a01b0387166000908152601b60209081526040808320878452909152902054105b61137457600080fd5b60405163e8ada04b60e01b8152600481018490526000906001600160a01b0388169063e8ada04b9060240161010060405180830381865afa1580156113bd573d6000803e3d6000fd5b505050506040513d601f19601f820116820180604052508101906113e19190613584565b5050505050509150506040518060a00160405280848152602001838152602001600d548152602001826001600160a01b03168152602001336001600160a01b0316815250600c6000896001600160a01b03166001600160a01b031681526020019081526020016000206000600d54815260200190815260200160002060008201518160000155602082015181600101556040820151816002015560608201518160030160006101000a8154816001600160a01b0302191690836001600160a01b0316021790555060808201518160040160006101000a8154816001600160a01b0302191690836001600160a01b031602179055509050506001601b6000896001600160a01b03166001600160a01b031681526020019081526020016000206000868152602001908152602001600020600082825461151f919061360b565b9091555050604051635bc1f0c760e01b8152336004820152602481018490526001600160a01b03881690635bc1f0c790604401600060405180830381600087803b15801561156c57600080fd5b505af1158015611580573d6000803e3d6000fd5b5050600d80546115db935089925090600061159a83613672565b919050556000368080601f0160208091040260200160405190810160405280939291908181526020018383808284376000920191909152506123bf92505050565b50506001601d555050505050565b6060816115f660076123f2565b6116009190613635565b67ffffffffffffffff81111561161857611618612fbf565b604051908082528060200260200182016040528015611641578160200160208202803683370190505b509050815b61165060076123f2565b81101561169e576116626007826123fc565b8282815181106116745761167461368b565b6001600160a01b03909216602092830291909101909101528061169681613672565b915050611646565b50919050565b6009546001600160a01b03163314806117205750604051630935e01b60e21b81523360048201526001600160a01b038216906324d7806c90602401602060405180830381865afa1580156116fc573d6000803e3d6000fd5b505050506040513d601f19601f8201168201806040525081019061172091906136a1565b61172957600080fd5b611192600782612408565b606060405180610120016040528060fd8152602001613cc660fd9139905080306040516020016117659291906136be565b6040516020818303038152906040529050806040516020016117879190613745565b6040516020818303038152906040529050806040516020016117a991906137ac565b6040516020818303038152906040529050806040516020016117cb9190613810565b604051602081830303815290604052905060006118186117ea8461241d565b6117f38461251e565b604051602001611804929190613850565b60405160208183030381529060405261251e565b90508060405160200161182b9190613963565b604051602081830303815290604052915050919050565b61184d60078b611f35565b61185657600080fd5b604051630935e01b60e21b81523360048201526001600160a01b038b16906324d7806c90602401602060405180830381865afa15801561189a573d6000803e3d6000fd5b505050506040513d601f19601f820116820180604052508101906118be91906136a1565b6118c757600080fd5b84518651146118d557600080fd5b336001600160a01b03167f311d623fa5d1dc1d182c8667c13d600cc45f3ab898572dec3f902f0eeea6c1658a8a8a8a8a8a8a8a8a60405161191e999897969594939291906139fd565b60405180910390a250505050505050505050565b61193d600733611f35565b61194657600080fd5b837fd368561cd059991c072c8c8c5d78ae672c64df9df7d0d1c29b2d24602663eddf3385858560405161197c9493929190613ac2565b60405180910390a250505050565b6011546040516301c045f160e21b815233600482015283916001600160a01b03169063070117c490602401602060405180830381865afa1580156119d2573d6000803e3d6000fd5b505050506040513d601f19601f820116820180604052508101906119f6919061356b565b14611a0057600080fd5b60175460405163ba83da4f60e01b8152600481018490526000916001600160a01b03169063ba83da4f90602401600060405180830381865afa158015611a4a573d6000803e3d6000fd5b505050506040513d6000823e601f3d908101601f19168201604052611a729190810190613b00565b5060408051600081526020810180835281519020929350611a9591849101613b81565b6040516020818303038152906040528051906020012003611ab557600080fd5b611abf8484612688565b8115611b1e576001600160a01b0384166000908152601960205260408120805460019290611aee90849061360b565b90915550506000838152601a602090815260408083206001600160a01b0388168452909152902060019055611b79565b6001600160a01b03841660009081526019602052604081206001908101805491929091611b4c90849061360b565b90915550506000838152601a602090815260408083206001600160a01b0388168452909152902060001990555b6001600160a01b0384166000908152601960205260408120600181015490541115611bca576001600160a01b038516600090815260196020526040902060018101549054611bc79190613635565b90505b611bd5601485612745565b5060008073__$6fb25d503dbcf1580bc9061361fc03232a$__632c7f99ce600085611c0060146123f2565b611c0a60146123f2565b6013546040516001600160e01b031960e088901b1681529415156004860152602485019390935260448401919091526064830152608482015260a4016040805180830381865af4158015611c62573d6000803e3d6000fd5b505050506040513d601f19601f82011682018060405250810190611c869190613b9d565b60138190556001600160a01b038916600081815260166020908152604080832086905560198252918290208054600190910154835191825291810191909152891515818301529051939550919350917fab63e912f390a63c02e4c6743df4f3705588d446bab0abcd0f4840df1a03ac219181900360600190a250505050505050565b6009546001600160a01b03163314611d1f57600080fd5b600e55565b6001600160a01b03918216600090815260056020908152604080832093909416825291909152205460ff1690565b6010546001600160a01b03163314611d6957600080fd5b6011546040516301c045f160e21b81526001600160a01b0386811660048301528592169063070117c490602401602060405180830381865afa158015611db3573d6000803e3d6000fd5b505050506040513d601f19601f82011682018060405250810190611dd7919061356b565b14611de157600080fd5b611dec600786612751565b506000838152601860205260409081902080546001600160a01b0319166001600160a01b03881690811790915590517f856a143d4bf4764a7328b3bf549411246604b4b7821153e67dab3b335827a2fd90611e4a9085908590613bc1565b60405180910390a25050505050565b6009546001600160a01b03163314611e7057600080fd5b600f55565b600081815260046020526040902080546001600160a01b0319166001600160a01b0384169081179091558190611eaa82610d20565b6001600160a01b03167f8c5be1e5ebec7d5bd14f71427d1e84f3dd0314c0f7b2291e5b200ac8c7c3b92560405160405180910390a45050565b604080516001600160a01b038416602482015260448082018490528251808303909101815260649091019091526020810180516001600160e01b031663a9059cbb60e01b1790526109b1908490612766565b6001600160a01b03811660009081526001830160205260408120541515611138565b6000818152600260205260408120546001600160a01b0316611fd05760405162461bcd60e51b815260206004820152602c60248201527f4552433732313a206f70657261746f7220717565727920666f72206e6f6e657860448201526b34b9ba32b73a103a37b5b2b760a11b606482015260840161087c565b6000611fdb83610d20565b9050806001600160a01b0316846001600160a01b031614806120165750836001600160a01b031661200b84610807565b6001600160a01b0316145b8061202657506120268185611d24565b949350505050565b826001600160a01b031661204182610d20565b6001600160a01b0316146120a55760405162461bcd60e51b815260206004820152602560248201527f4552433732313a207472616e736665722066726f6d20696e636f72726563742060448201526437bbb732b960d91b606482015260840161087c565b6001600160a01b0382166121075760405162461bcd60e51b8152602060048201526024808201527f4552433732313a207472616e7366657220746f20746865207a65726f206164646044820152637265737360e01b606482015260840161087c565b612112838383612838565b61211d600082611e75565b6001600160a01b0383166000908152600360205260408120805460019290612146908490613635565b90915550506001600160a01b038216600090815260036020526040812080546001929061217490849061360b565b909155505060008181526002602052604080822080546001600160a01b0319166001600160a01b0386811691821790925591518493918716917fddf252ad1be2c89b69c2b068fc378daa952ba7f163c4a11628f55a4df523b3ef91a4505050565b6000604b8211156121e857506003919050565b60328211156121f957506002919050565b601982111561220a57506001919050565b506000919050565b919050565b600061222282610d20565b905061223081600084612838565b61223b600083611e75565b6001600160a01b0381166000908152600360205260408120805460019290612264908490613635565b909155505060008281526002602052604080822080546001600160a01b0319169055518391906001600160a01b038416907fddf252ad1be2c89b69c2b068fc378daa952ba7f163c4a11628f55a4df523b3ef908390a45050565b816001600160a01b0316836001600160a01b03160361231f5760405162461bcd60e51b815260206004820152601960248201527f4552433732313a20617070726f766520746f2063616c6c657200000000000000604482015260640161087c565b6001600160a01b03838116600081815260056020908152604080832094871680845294825291829020805460ff191686151590811790915591519182527f17307eab39ab6107e8899845ad3d59bd9653f200f220920489ca2b5937696c31910160405180910390a3505050565b61239784848461202e565b6123a38484848461289f565b61122a5760405162461bcd60e51b815260040161087c90613bef565b6123c983836129a0565b6123d6600084848461289f565b6109b15760405162461bcd60e51b815260040161087c90613bef565b600061076f825490565b60006111388383612aee565b6000611138836001600160a01b038416612b18565b6060816000036124445750506040805180820190915260018152600360fc1b602082015290565b8160005b811561246e578061245881613672565b91506124679050600a8361365e565b9150612448565b60008167ffffffffffffffff81111561248957612489612fbf565b6040519080825280601f01601f1916602001820160405280156124b3576020820181803683370190505b5090505b8415612026576124c8600183613635565b91506124d5600a86613c41565b6124e090603061360b565b60f81b8183815181106124f5576124f561368b565b60200101906001600160f81b031916908160001a905350612517600a8661365e565b94506124b7565b80516060906000819003612542575050604080516020810190915260008152919050565b6000600361255183600261360b565b61255b919061365e565b61256690600461361e565b9050600061257582602061360b565b67ffffffffffffffff81111561258d5761258d612fbf565b6040519080825280601f01601f1916602001820160405280156125b7576020820181803683370190505b5090506000604051806060016040528060408152602001613dc3604091399050600181016020830160005b86811015612643576003818a01810151603f601282901c8116860151600c83901c8216870151600684901c831688015192909316870151600891821b60ff94851601821b92841692909201901b91160160e01b8352600490920191016125e2565b50600386066001811461265d576002811461266e5761267a565b613d3d60f01b60011983015261267a565b603d60f81b6000198301525b505050918152949350505050565b6000818152601a602090815260408083206001600160a01b038616845290915281205413156126e5576001600160a01b03821660009081526019602052604081208054600192906126da908490613635565b909155506111929050565b6000818152601a602090815260408083206001600160a01b03861684529091528120541215611192576001600160a01b0382166000908152601960205260408120600190810180549192909161273c908490613635565b90915550505050565b60006111388383612c0b565b6000611138836001600160a01b038416612c0b565b60006127bb826040518060400160405280602081526020017f5361666545524332303a206c6f772d6c6576656c2063616c6c206661696c6564815250856001600160a01b0316612c5a9092919063ffffffff16565b8051909150156109b157808060200190518101906127d991906136a1565b6109b15760405162461bcd60e51b815260206004820152602a60248201527f5361666545524332303a204552433230206f7065726174696f6e20646964206e6044820152691bdd081cdd58d8d9595960b21b606482015260840161087c565b60065460ff16156109b15760405162461bcd60e51b815260206004820152602b60248201527f4552433732315061757361626c653a20746f6b656e207472616e73666572207760448201526a1a1a5b19481c185d5cd95960aa1b606482015260840161087c565b60006001600160a01b0384163b1561299557604051630a85bd0160e11b81526001600160a01b0385169063150b7a02906128e3903390899088908890600401613c55565b6020604051808303816000875af192505050801561291e575060408051601f3d908101601f1916820190925261291b91810190613c92565b60015b61297b573d80801561294c576040519150601f19603f3d011682016040523d82523d6000602084013e612951565b606091505b5080516000036129735760405162461bcd60e51b815260040161087c90613bef565b805181602001fd5b6001600160e01b031916630a85bd0160e11b149050612026565b506001949350505050565b6001600160a01b0382166129f65760405162461bcd60e51b815260206004820181905260248201527f4552433732313a206d696e7420746f20746865207a65726f2061646472657373604482015260640161087c565b6000818152600260205260409020546001600160a01b031615612a5b5760405162461bcd60e51b815260206004820152601c60248201527f4552433732313a20746f6b656e20616c7265616479206d696e74656400000000604482015260640161087c565b612a6760008383612838565b6001600160a01b0382166000908152600360205260408120805460019290612a9090849061360b565b909155505060008181526002602052604080822080546001600160a01b0319166001600160a01b03861690811790915590518392907fddf252ad1be2c89b69c2b068fc378daa952ba7f163c4a11628f55a4df523b3ef908290a45050565b6000826000018281548110612b0557612b0561368b565b9060005260206000200154905092915050565b60008181526001830160205260408120548015612c01576000612b3c600183613635565b8554909150600090612b5090600190613635565b9050818114612bb5576000866000018281548110612b7057612b7061368b565b9060005260206000200154905080876000018481548110612b9357612b9361368b565b6000918252602080832090910192909255918252600188019052604090208390555b8554869080612bc657612bc6613caf565b60019003818190600052602060002001600090559055856001016000868152602001908152602001600020600090556001935050505061076f565b600091505061076f565b6000818152600183016020526040812054612c525750815460018181018455600084815260208082209093018490558454848252828601909352604090209190915561076f565b50600061076f565b60606111358484600085856001600160a01b0385163b612cbc5760405162461bcd60e51b815260206004820152601d60248201527f416464726573733a2063616c6c20746f206e6f6e2d636f6e7472616374000000604482015260640161087c565b600080866001600160a01b03168587604051612cd89190613b81565b60006040518083038185875af1925050503d8060008114612d15576040519150601f19603f3d011682016040523d82523d6000602084013e612d1a565b606091505b5091509150612d2a828286612d35565b979650505050505050565b60608315612d44575081611138565b825115612d545782518084602001fd5b8160405162461bcd60e51b815260040161087c9190612df4565b6001600160e01b031981168114612d8457600080fd5b50565b600060208284031215612d9957600080fd5b813561113881612d6e565b60005b83811015612dbf578181015183820152602001612da7565b50506000910152565b60008151808452612de0816020860160208601612da4565b601f01601f19169290920160200192915050565b6020815260006111386020830184612dc8565b600060208284031215612e1957600080fd5b5035919050565b6001600160a01b0381168114612d8457600080fd5b803561221281612e20565b60008060408385031215612e5357600080fd5b8235612e5e81612e20565b946020939093013593505050565b600060208284031215612e7e57600080fd5b813561113881612e20565b60008060408385031215612e9c57600080fd5b50508035926020909101359150565b600080600060608486031215612ec057600080fd5b8335612ecb81612e20565b92506020840135612edb81612e20565b929592945050506040919091013590565b6001600160a01b03831681526040810160048310612f1a57634e487b7160e01b600052602160045260246000fd5b8260208301529392505050565b60008060408385031215612f3a57600080fd5b823591506020830135612f4c81612e20565b809150509250929050565b600080600060608486031215612f6c57600080fd5b505081359360208301359350604090920135919050565b8015158114612d8457600080fd5b60008060408385031215612fa457600080fd5b8235612faf81612e20565b91506020830135612f4c81612f83565b634e487b7160e01b600052604160045260246000fd5b604051601f8201601f1916810167ffffffffffffffff81118282101715612ffe57612ffe612fbf565b604052919050565b600067ffffffffffffffff82111561302057613020612fbf565b50601f01601f191660200190565b600061304161303c84613006565b612fd5565b905082815283838301111561305557600080fd5b828260208301376000602084830101529392505050565b6000806000806080858703121561308257600080fd5b843561308d81612e20565b9350602085013561309d81612e20565b925060408501359150606085013567ffffffffffffffff8111156130c057600080fd5b8501601f810187136130d157600080fd5b6130e08782356020840161302e565b91505092959194509250565b6020808252825182820181905260009190848201906040850190845b8181101561312d5783516001600160a01b031683529284019291840191600101613108565b50909695505050505050565b600082601f83011261314a57600080fd5b6111388383356020850161302e565b600082601f83011261316a57600080fd5b8135602067ffffffffffffffff8083111561318757613187612fbf565b8260051b613196838201612fd5565b93845285810183019383810190888611156131b057600080fd5b84880192505b858310156131ec578235848111156131ce5760008081fd5b6131dc8a87838c0101613139565b83525091840191908401906131b6565b98975050505050505050565b6000806000806000806000806000806101408b8d03121561321857600080fd5b6132218b612e35565b995060208b013567ffffffffffffffff8082111561323e57600080fd5b61324a8e838f01613139565b9a5060408d013591508082111561326057600080fd5b61326c8e838f01613139565b995060608d013591508082111561328257600080fd5b61328e8e838f01613139565b985060808d01359150808211156132a457600080fd5b6132b08e838f01613159565b975060a08d01359150808211156132c657600080fd5b6132d28e838f01613159565b965060c08d01359150808211156132e857600080fd5b6132f48e838f01613159565b955060e08d013591508082111561330a57600080fd5b6133168e838f01613159565b94506101008d013591508082111561332d57600080fd5b6133398e838f01613159565b93506101208d013591508082111561335057600080fd5b5061335d8d828e01613159565b9150509295989b9194979a5092959850565b6000806000806080858703121561338557600080fd5b84359350602085013561339781612e20565b9250604085013567ffffffffffffffff808211156133b457600080fd5b6133c088838901613139565b935060608701359150808211156133d657600080fd5b506130e087828801613139565b6000806000606084860312156133f857600080fd5b833561340381612e20565b925060208401359150604084013561341a81612f83565b809150509250925092565b6000806040838503121561343857600080fd5b823561344381612e20565b91506020830135612f4c81612e20565b600080600080600060a0868803121561346b57600080fd5b853561347681612e20565b9450602086013561348681612e20565b935060408601359250606086013567ffffffffffffffff808211156134aa57600080fd5b6134b689838a01613139565b935060808801359150808211156134cc57600080fd5b506134d988828901613139565b9150509295509295909350565b600181811c908216806134fa57607f821691505b60208210810361169e57634e487b7160e01b600052602260045260246000fd5b60208082526031908201527f4552433732313a207472616e736665722063616c6c6572206973206e6f74206f6040820152701ddb995c881b9bdc88185c1c1c9bdd9959607a1b606082015260800190565b60006020828403121561357d57600080fd5b5051919050565b600080600080600080600080610100898b0312156135a157600080fd5b88516135ac81612e20565b60208a01519098506135bd81612e20565b60408a015160608b015160808c015160a08d015160c08e015160e0909e01519c9f949e50929c919b909a509198509650945092505050565b634e487b7160e01b600052601160045260246000fd5b8082018082111561076f5761076f6135f5565b808202811582820484141761076f5761076f6135f5565b8181038181111561076f5761076f6135f5565b634e487b7160e01b600052601260045260246000fd5b60008261366d5761366d613648565b500490565b600060018201613684576136846135f5565b5060010190565b634e487b7160e01b600052603260045260246000fd5b6000602082840312156136b357600080fd5b815161113881612f83565b600083516136d0818460208801612da4565b71021b7b73a3930b1ba1030b2323932b9b99d160751b92019182525060609190911b6bffffffffffffffffffffffff191660128201527f3c2f746578743e3c7465787420783d2231302220793d2234302220636c6173736026820152671e913130b9b2911f60c11b6046820152604e01919050565b60008251613757818460208701612da4565b6b020b6b7bab73a10323ab29d160a51b9201918252507f3c2f746578743e3c7465787420783d2231302220793d2236302220636c617373600c820152671e913130b9b2911f60c11b602c820152603401919050565b600082516137be818460208701612da4565b6802a34b6b290323ab2960bd1b9201918252507f3c2f746578743e3c7465787420783d2231302220793d2238302220636c6173736009820152671e913130b9b2911f60c11b6029820152603101919050565b60008251613822818460208701612da4565b65027bbb732b9160d51b9201918252506c1e17ba32bc3a1f1e17b9bb339f60991b6006820152601301919050565b7f7b226e616d65223a202253706f6e736f7243617264206e6f746520230000000081526000835161388881601c850160208801612da4565b7f222c20226465736372697074696f6e223a202254686973206361726420676976601c918401918201527f657320796f752061636365737320746f20616d6f756e74206475652062792074603c8201527f6865206f776e65722061742064617465206d656e74696f6e65642062656c6f77605c8201527f2e222c2022696d616765223a2022646174613a696d6167652f7376672b786d6c607c820152670ed8985cd94d8d0b60c21b609c82015283516139488160a4840160208801612da4565b61227d60f01b60a4929091019182015260a601949350505050565b7f646174613a6170706c69636174696f6e2f6a736f6e3b6261736536342c00000081526000825161399b81601d850160208701612da4565b91909101601d0192915050565b600081518084526020808501808196508360051b8101915082860160005b858110156139f05782840389526139de848351612dc8565b988501989350908401906001016139c6565b5091979650505050505050565b6000610120808352613a118184018d612dc8565b90508281036020840152613a25818c612dc8565b90508281036040840152613a39818b612dc8565b90508281036060840152613a4d818a6139a8565b90508281036080840152613a6181896139a8565b905082810360a0840152613a7581886139a8565b905082810360c0840152613a8981876139a8565b905082810360e0840152613a9d81866139a8565b9050828103610100840152613ab281856139a8565b9c9b505050505050505050505050565b6001600160a01b03858116825284166020820152608060408201819052600090613aee90830185612dc8565b8281036060840152612d2a8185612dc8565b60008060408385031215613b1357600080fd5b825167ffffffffffffffff811115613b2a57600080fd5b8301601f81018513613b3b57600080fd5b8051613b4961303c82613006565b818152866020838501011115613b5e57600080fd5b613b6f826020830160208601612da4565b60209590950151949694955050505050565b60008251613b93818460208701612da4565b9190910192915050565b60008060408385031215613bb057600080fd5b505080516020909101519092909150565b604081526000613bd46040830185612dc8565b8281036020840152613be68185612dc8565b95945050505050565b60208082526032908201527f4552433732313a207472616e7366657220746f206e6f6e20455243373231526560408201527131b2b4bb32b91034b6b83632b6b2b73a32b960711b606082015260800190565b600082613c5057613c50613648565b500690565b6001600160a01b0385811682528416602082015260408101839052608060608201819052600090613c8890830184612dc8565b9695505050505050565b600060208284031215613ca457600080fd5b815161113881612d6e565b634e487b7160e01b600052603160045260246000fdfe3c73766720786d6c6e733d22687474703a2f2f7777772e77332e6f72672f323030302f73766722207072657365727665417370656374526174696f3d22784d696e594d696e206d656574222076696577426f783d223020302033353020333530223e3c7374796c653e2e62617365207b2066696c6c3a2077686974653b20666f6e742d66616d696c793a2073657269663b20666f6e742d73697a653a20313470783b207d3c2f7374796c653e3c726563742077696474683d223130302522206865696768743d2231303025222066696c6c3d22626c61636b22202f3e3c7465787420783d2231302220793d2232302220636c6173733d2262617365223e4142434445464748494a4b4c4d4e4f505152535455565758595a6162636465666768696a6b6c6d6e6f707172737475767778797a303132333435363738392b2fa2646970667358221220b9cef255c467ae9a1149b68e05862dae2655aa5b5551962e6e50ddc7cf73050464736f6c63430008110033",
    "sourcePath": "/home/tetevi/Documents/solidly/contracts/SponsorCard.sol",
    "compiler": {
        "name": "solc",
        "version": "0.8.17+commit.8df45f5f"
    },
    "functionHashes": {
        "approve(address,uint256)": "095ea7b3",
        "auditorNote()": "3946ea5c",
        "balanceOf(address)": "70a08231",
        "claimRevenueFromNote(address,uint256)": "6f61a42d",
        "deleteSponsor(address)": "c3a292a9",
        "devaddr_()": "91862ccf",
        "emitDeleteProtocol(uint256)": "39932f13",
        "emitPayInvoicePayable(uint256,uint256)": "18d3bc29",
        "emitUpdateProtocol(uint256,address,string,string)": "dde4d41a",
        "emitUpdateSponsorDescription(address,string,string,string,string[],string[],string[],string[],string[],string[])": "d6b59e84",
        "emitWithdraw(address,uint256)": "b014da21",
        "getAllSponsors(uint256)": "c2b753ad",
        "getApproved(uint256)": "081812fc",
        "getDuePayable(address,address,uint256)": "2e8cc775",
        "getGaugeNColor(uint256)": "4a1396ef",
        "getNumPeriods(uint256,uint256,uint256)": "80bec6d1",
        "isApprovedForAll(address,address)": "e985e9c5",
        "isGauge(address)": "aa79979b",
        "minBountyPercent()": "32172e99",
        "name()": "06fdde03",
        "notes(address,uint256)": "e0b117ff",
        "ownerOf(uint256)": "6352211e",
        "paused()": "5c975abb",
        "percentiles(address)": "1ea68e76",
        "profiles(uint256)": "c36fe3d6",
        "safeTransferFrom(address,address,uint256)": "42842e0e",
        "safeTransferFrom(address,address,uint256,bytes)": "b88d4fde",
        "setApprovalForAll(address,bool)": "a22cb465",
        "setFactory(address)": "5bb47808",
        "supportsInterface(bytes4)": "01ffc9a7",
        "symbol()": "95d89b41",
        "tokenId()": "17d70f7c",
        "tokenURI(uint256)": "c87b56dd",
        "tradingFee()": "56f43352",
        "transferDueToNote(address,address,uint256)": "bbb9839a",
        "transferFrom(address,address,uint256)": "23b872dd",
        "treasuryFees(address)": "2241b619",
        "trustBounty()": "dabb036d",
        "updateDev(address)": "934c1938",
        "updateGauge(address,address,uint256,string,string)": "f23ec6f8",
        "updateMinBountyPercent(uint256)": "f58f8dff",
        "updateTradingFee(uint256)": "e1a67828",
        "vote(address,uint256,bool)": "e1a02577",
        "voted(uint256,address)": "5277b4ae",
        "votes(address)": "d8bff5a5",
        "withdrawFees(address)": "164e68de"
    },
    "gasEstimates": {
        "creation": {
            "codeDepositCost": "3185600",
            "executionCost": "infinite",
            "totalCost": "infinite"
        },
        "external": {
            "approve(address,uint256)": "infinite",
            "auditorNote()": "2405",
            "balanceOf(address)": "2738",
            "claimRevenueFromNote(address,uint256)": "infinite",
            "deleteSponsor(address)": "infinite",
            "devaddr_()": "2405",
            "emitDeleteProtocol(uint256)": "4019",
            "emitPayInvoicePayable(uint256,uint256)": "4300",
            "emitUpdateProtocol(uint256,address,string,string)": "infinite",
            "emitUpdateSponsorDescription(address,string,string,string,string[],string[],string[],string[],string[],string[])": "infinite",
            "emitWithdraw(address,uint256)": "4401",
            "getAllSponsors(uint256)": "infinite",
            "getApproved(uint256)": "4783",
            "getDuePayable(address,address,uint256)": "infinite",
            "getGaugeNColor(uint256)": "5017",
            "getNumPeriods(uint256,uint256,uint256)": "628",
            "isApprovedForAll(address,address)": "infinite",
            "isGauge(address)": "infinite",
            "minBountyPercent()": "2341",
            "name()": "infinite",
            "notes(address,uint256)": "11248",
            "ownerOf(uint256)": "2667",
            "paused()": "2382",
            "percentiles(address)": "2603",
            "profiles(uint256)": "2632",
            "safeTransferFrom(address,address,uint256)": "infinite",
            "safeTransferFrom(address,address,uint256,bytes)": "infinite",
            "setApprovalForAll(address,bool)": "infinite",
            "setFactory(address)": "26772",
            "supportsInterface(bytes4)": "557",
            "symbol()": "infinite",
            "tokenId()": "2341",
            "tokenURI(uint256)": "infinite",
            "tradingFee()": "2340",
            "transferDueToNote(address,address,uint256)": "infinite",
            "transferFrom(address,address,uint256)": "infinite",
            "treasuryFees(address)": "2625",
            "trustBounty()": "2470",
            "updateDev(address)": "26795",
            "updateGauge(address,address,uint256,string,string)": "infinite",
            "updateMinBountyPercent(uint256)": "24618",
            "updateTradingFee(uint256)": "24552",
            "vote(address,uint256,bool)": "infinite",
            "voted(uint256,address)": "2772",
            "votes(address)": "4763",
            "withdrawFees(address)": "infinite"
        },
        "internal": {
            "_getColor(uint256)": "103",
            "_resetVote(address,uint256)": "28981",
            "_sumArr(uint256[] memory)": "infinite",
            "toString(uint256)": "infinite"
        }
    }
}