{
    "contractName": "SponsorFactory",
    "abi": [
        {
            "inputs": [
                {
                    "internalType": "address",
                    "name": "_helper",
                    "type": "address"
                },
                {
                    "internalType": "address",
                    "name": "_contentContract",
                    "type": "address"
                },
                {
                    "internalType": "address",
                    "name": "_ssi",
                    "type": "address"
                }
            ],
            "stateMutability": "nonpayable",
            "type": "constructor"
        },
        {
            "inputs": [
                {
                    "internalType": "uint256",
                    "name": "_profileId",
                    "type": "uint256"
                },
                {
                    "internalType": "address",
                    "name": "_devaddr",
                    "type": "address"
                },
                {
                    "internalType": "string",
                    "name": "_name",
                    "type": "string"
                },
                {
                    "internalType": "string",
                    "name": "avatar",
                    "type": "string"
                },
                {
                    "internalType": "string",
                    "name": "sponsorDescription",
                    "type": "string"
                }
            ],
            "name": "createGauge",
            "outputs": [],
            "stateMutability": "nonpayable",
            "type": "function"
        }
    ],
    "bytecode": "608060405234801561001057600080fd5b5060405161456338038061456383398101604081905261002f9161008d565b600180546001600160a01b039485166001600160a01b0319918216179091556002805493851693821693909317909255600080549190931691161790556100d0565b80516001600160a01b038116811461008857600080fd5b919050565b6000806000606084860312156100a257600080fd5b6100ab84610071565b92506100b960208501610071565b91506100c760408501610071565b90509250925092565b614484806100df6000396000f3fe608060405234801561001057600080fd5b506004361061002b5760003560e01c8063ba2bc86b14610030575b600080fd5b61004361003e3660046101c3565b610045565b005b60015460025460008054604051919388936001600160a01b03918216939082169290911690889061007590610113565b6100839594939291906102ba565b604051809103906000f08015801561009f573d6000803e3d6000fd5b50600154604051631e47d8df60e31b81529192506001600160a01b03169063f23ec6f8906100d990849033908b9088908a90600401610301565b600060405180830381600087803b1580156100f357600080fd5b505af1158015610107573d6000803e3d6000fd5b50505050505050505050565b6140fc8061035383390190565b634e487b7160e01b600052604160045260246000fd5b600082601f83011261014757600080fd5b813567ffffffffffffffff8082111561016257610162610120565b604051601f8301601f19908116603f0116810190828211818310171561018a5761018a610120565b816040528381528660208588010111156101a357600080fd5b836020870160208301376000602085830101528094505050505092915050565b600080600080600060a086880312156101db57600080fd5b8535945060208601356001600160a01b03811681146101f957600080fd5b9350604086013567ffffffffffffffff8082111561021657600080fd5b61022289838a01610136565b9450606088013591508082111561023857600080fd5b61024489838a01610136565b9350608088013591508082111561025a57600080fd5b5061026788828901610136565b9150509295509295909350565b6000815180845260005b8181101561029a5760208185018101518683018201520161027e565b506000602082860101526020601f19601f83011685010191505092915050565b6001600160a01b038681168252858116602083015284811660408301528316606082015260a0608082018190526000906102f690830184610274565b979650505050505050565b6001600160a01b038681168252851660208201526040810184905260a06060820181905260009061033490830185610274565b82810360808401526103468185610274565b9897505050505050505056fe60806040526003805460ff19169055600160178190556019819055601e553480156200002a57600080fd5b50604051620040fc380380620040fc8339810160408190526200004d916200012e565b60038054610100600160a81b0319166101006001600160a01b03888116918202929092179092556000918252600f6020526040909120805460ff191660011790556010805462010000600160b01b0319166201000087841602179055600480546001600160a01b0319169184169190911790556014620000ce8282620002dd565b5050601b80546001600160a01b0319166001600160a01b03939093169290921790915550620003a9915050565b80516001600160a01b03811681146200011357600080fd5b919050565b634e487b7160e01b600052604160045260246000fd5b600080600080600060a086880312156200014757600080fd5b6200015286620000fb565b9450602062000163818801620000fb565b94506200017360408801620000fb565b93506200018360608801620000fb565b60808801519093506001600160401b0380821115620001a157600080fd5b818901915089601f830112620001b657600080fd5b815181811115620001cb57620001cb62000118565b604051601f8201601f19908116603f01168101908382118183101715620001f657620001f662000118565b816040528281528c868487010111156200020f57600080fd5b600093505b8284101562000233578484018601518185018701529285019262000214565b60008684830101528096505050505050509295509295909350565b600181811c908216806200026357607f821691505b6020821081036200028457634e487b7160e01b600052602260045260246000fd5b50919050565b601f821115620002d857600081815260208120601f850160051c81016020861015620002b35750805b601f850160051c820191505b81811015620002d457828155600101620002bf565b5050505b505050565b81516001600160401b03811115620002f957620002f962000118565b62000311816200030a84546200024e565b846200028a565b602080601f831160018114620003495760008415620003305750858301515b600019600386901b1c1916600185901b178555620002d4565b600085815260208120601f198616915b828110156200037a5788860151825594840194600190910190840162000359565b5085821015620003995787850151600019600388901b60f8161c191681555b5050505050600190811b01905550565b613d4380620003b96000396000f3fe608060405234801561001057600080fd5b50600436106102a05760003560e01c80638a0f7e3211610167578063c294d405116100ce578063d868c1b611610087578063d868c1b614610643578063e2de9a8b1461064c578063e8ada04b1461066c578063f3fef3a314610710578063f6b50ef814610723578063f93f2bb41461073057600080fd5b8063c294d405146105ca578063c2a38676146105dd578063c723ee17146105f0578063c731e9c3146105fd578063ca9588b91461061d578063ce6f272d1461063057600080fd5b8063af71d1d311610120578063af71d1d31461055b578063b7a972741461056e578063b80499da1461057b578063baab78f614610584578063bc0fe64014610597578063bd760cd4146105aa57600080fd5b80638a0f7e32146104e45780638dd598fb146104f757806390572f9b1461050a57806391862ccf1461051d578063934c193814610535578063a4706a3a1461054857600080fd5b806340c3fccf1161020b57806363b0e66a116101c457806363b0e66a1461045f5780636526923714610490578063670a6fd9146104a35780636aa934a2146104b65780636f6b71b5146104be578063721e2bef146104d157600080fd5b806340c3fccf146103f8578063426edecd1461040b57806345c5c66f1461041e5780634fc7b9e7146104315780635bc1f0c71461044457806360587b061461045757600080fd5b8063330516c91161025d578063330516c91461035f5780633527dd251461037f5780633615770f1461039f57806337f82090146103b25780633b4499cc146103d25780633c3b1b7b146103e557600080fd5b806306fdde03146102a55780630ed68f3b146102c357806320d7bec1146102d857806324d7806c1461030657806325c2a2d8146103395780632db22a471461034c575b600080fd5b6102ad610739565b6040516102ba919061301e565b60405180910390f35b6102d66102d1366004613046565b6107c7565b005b6102f86102e6366004613072565b600e6020526000908152604090205481565b6040519081526020016102ba565b610329610314366004613072565b600f6020526000908152604090205460ff1681565b60405190151581526020016102ba565b6102d661034736600461313e565b610982565b6102d661035a3660046131ee565b610a24565b61037261036d366004613275565b610b7d565b6040516102ba919061328e565b61039261038d366004613275565b610c37565b6040516102ba91906132db565b6102d66103ad366004613275565b610d5d565b6102f86103c0366004613072565b60126020526000908152604090205481565b6102d66103e0366004613072565b61117e565b6102d66103f3366004613072565b611206565b6102d66104063660046133b5565b61130d565b61032961041936600461346e565b611578565b6102d661042c366004613275565b6115fb565b6102f861043f366004613072565b61169d565b6102d6610452366004613046565b611c35565b6102ad611cc8565b601054610478906201000090046001600160a01b031681565b6040516001600160a01b0390911681526020016102ba565b6102d661049e36600461352b565b611cd5565b6102d66104b13660046135c6565b611d57565b6102ad611dbd565b6102d66104cc366004613046565b611dca565b6102d66104df366004613072565b611ecd565b6102d66104f23660046135ff565b611fff565b601154610478906001600160a01b031681565b6102d6610518366004613275565b61202e565b6003546104789061010090046001600160a01b031681565b6102d6610543366004613072565b612087565b6102d6610556366004613621565b6120cb565b6102d6610569366004613662565b61211e565b6010546103299060ff1681565b6102f8600a5481565b6102d6610592366004613680565b61214d565b6103726105a5366004613275565b612273565b6102f86105b8366004613072565b601a6020526000908152604090205481565b6102d66105d8366004613046565b612327565b6103296105eb366004613072565b6129c5565b6009546103299060ff1681565b6102f861060b366004613275565b601d6020526000908152604090205481565b600454610478906001600160a01b031681565b6102d661063e3660046136c6565b6129d8565b6102f860195481565b6102f861065a366004613072565b601c6020526000908152604090205481565b6106ca61067a366004613275565b601860205260009081526040902080546001820154600283015460038401546004850154600586015460068701546007909701546001600160a01b03968716979590961695939492939192909188565b604080516001600160a01b03998a168152989097166020890152958701949094526060860192909252608085015260a084015260c083015260e0820152610100016102ba565b6102d661071e366004613046565b612a35565b6013546103299060ff1681565b6102f860175481565b6014805461074690613731565b80601f016020809104026020016040519081016040528092919081815260200182805461077290613731565b80156107bf5780601f10610794576101008083540402835291602001916107bf565b820191906000526020600020905b8154815290600101906020018083116107a257829003601f168201915b505050505081565b6010546000906201000090046001600160a01b031633146107e857336107ea565b825b60095490915060ff161561096357600a546001600160a01b0382166000908152600b6020526040902061081c90612ac4565b1015801561084257506001600160a01b0381166000908152600e60205260409020548211155b6108845760405162461bcd60e51b815260206004820152600e60248201526d4f6e6c7920636f7369676e65727360901b60448201526064015b60405180910390fd5b6001600160a01b0381166000908152600e6020526040812080548492906108ac90849061377b565b90915550506001600160a01b0381166000908152600e6020526040812054900361095e576001600160a01b0381166000908152600b602052604081206108f190612ac4565b90505b8015610951576001600160a01b0382166000908152600b6020526040812061093e916109209190612ace565b6001600160a01b0384166000908152600b6020526040902090612ae1565b5061094a60018261377b565b90506108f4565b801561095c57600080fd5b505b505050565b6003546001600160a01b03828116610100909204161461095e57600080fd5b336000908152600f602052604090205460ff1661099e57600080fd5b60005b825181101561095e5781156109e3576109dd8382815181106109c5576109c561378e565b60200260200101516001612af690919063ffffffff16565b50610a12565b610a108382815181106109f8576109f861378e565b60200260200101516001612ae190919063ffffffff16565b505b80610a1c816137a4565b9150506109a1565b336000908152600f602052604090205460ff16610a4057600080fd5b60005b825181101561095e5760045483516000916001600160a01b03169063ba83da4f90869085908110610a7657610a7661378e565b60200260200101516040518263ffffffff1660e01b8152600401610a9c91815260200190565b600060405180830381865afa158015610ab9573d6000803e3d6000fd5b505050506040513d6000823e601f3d908101601f19168201604052610ae19190810190613802565b5060408051600081526020810180835281519020929350610b0491849101613848565b6040516020818303038152906040528051906020012014610b6a57826008600083604051602001610b359190613848565b60408051808303601f19018152918152815160209283012083529082019290925201600020805460ff19169115159190911790555b5080610b75816137a4565b915050610a43565b606081610b8a600c612ac4565b610b94919061377b565b6001600160401b03811115610bab57610bab61308f565b604051908082528060200260200182016040528015610bd4578160200160208202803683370190505b509050815b610be3600c612ac4565b811015610c3157610bf5600c82612ace565b828281518110610c0757610c0761378e565b6001600160a01b039092166020928302919091019091015280610c29816137a4565b915050610bd9565b50919050565b606081610c446015612ac4565b610c4e919061377b565b6001600160401b03811115610c6557610c6561308f565b604051908082528060200260200182016040528015610c9857816020015b6060815260200190600190039081610c835790505b509050815b610ca76015612ac4565b811015610c3157601b546001600160a01b0316636d35b961610cca601584612ace565b6040518263ffffffff1660e01b8152600401610ce891815260200190565b600060405180830381865afa158015610d05573d6000803e3d6000fd5b505050506040513d6000823e601f3d908101601f19168201604052610d2d9190810190613864565b828281518110610d3f57610d3f61378e565b60200260200101819052508080610d55906137a4565b915050610c9d565b6000806000601060029054906101000a90046001600160a01b03166001600160a01b031663dabb036d6040518163ffffffff1660e01b8152600401602060405180830381865afa158015610db5573d6000803e3d6000fd5b505050506040513d601f19601f82011682018060405250810190610dd99190613898565b6001600160a01b0316630857e69c856040518263ffffffff1660e01b8152600401610e0691815260200190565b61014060405180830381865afa158015610e24573d6000803e3d6000fd5b505050506040513d601f19601f82011682018060405250810190610e4891906138b5565b5050336000908152600f6020526040902054979a50959850929650505060ff9093161592506110c3915050576001600160a01b03831633148015610e9357506001600160a01b038116155b610e9c57600080fd5b600084118015610ec257506001600160a01b038216600090815260126020526040902054155b15610fa257601060029054906101000a90046001600160a01b03166001600160a01b031663dabb036d6040518163ffffffff1660e01b8152600401602060405180830381865afa158015610f1a573d6000803e3d6000fd5b505050506040513d601f19601f82011682018060405250810190610f3e9190613898565b6001600160a01b031663fbd3a29d856040518263ffffffff1660e01b8152600401610f6b91815260200190565b600060405180830381600087803b158015610f8557600080fd5b505af1158015610f99573d6000803e3d6000fd5b505050506110a3565b83158015610fc757506001600160a01b03821660009081526012602052604090205415155b156110a357601060029054906101000a90046001600160a01b03166001600160a01b031663dabb036d6040518163ffffffff1660e01b8152600401602060405180830381865afa15801561101f573d6000803e3d6000fd5b505050506040513d601f19601f820116820180604052508101906110439190613898565b6001600160a01b031663986b7d8a856040518263ffffffff1660e01b815260040161107091815260200190565b600060405180830381600087803b15801561108a57600080fd5b505af115801561109e573d6000803e3d6000fd5b505050505b6001600160a01b038216600090815260126020526040902084905561095c565b6001600160a01b038316331480156111055750336000908152601a6020908152604080832054835260189091529020600101546001600160a01b038381169116145b801561112357506003546001600160a01b0382811661010090920416145b61112c57600080fd5b336000908152601a6020908152604080832054835260189091529020600201541561115657600080fd5b336000908152601a602090815260408083205483526018909152902060020184905550505050565b336000908152600f602052604090205460ff1661119a57600080fd5b336001600160a01b03821614611203576001600160a01b0381166000908152600b602052604090206111cc9033612af6565b50600a546001600160a01b0382166000908152600b602052604090206111f190612ac4565b1061120357611201600c82612ae1565b505b50565b336000908152600f602052604090205460ff1661122257600080fd5b6001600160a01b038181166000818152601a60208181526040808420805485526018835281852080546001600160a01b03199081168255600182018054909116905560028101869055600381018690556004808201879055600582018790556006820187905560079091018690556010549690955292909152905490516339932f1360e01b81529182015262010000909104909116906339932f1390602401600060405180830381600087803b1580156112db57600080fd5b505af11580156112ef573d6000803e3d6000fd5b505050506001600160a01b03166000908152601a6020526040812055565b33600061131a82826107c7565b6113248b87612327565b6001600160a01b038b166000908152601a602052604081205490036114fe5760198054906000611353836137a4565b909155506001600160a01b038c166000908152601a60205260409020819055945061137e874261396b565b60186000601a60008f6001600160a01b03166001600160a01b03168152602001908152602001600020548152602001908152602001600020600701819055508860186000601a60008f6001600160a01b03166001600160a01b03168152602001908152602001600020548152602001908152602001600020600401819055508760186000601a60008f6001600160a01b03166001600160a01b03168152602001908152602001600020548152602001908152602001600020600601819055508a60186000601a60008f6001600160a01b03166001600160a01b0316815260200190815260200160002054815260200190815260200160002060000160006101000a8154816001600160a01b0302191690836001600160a01b031602179055508960186000601a60008f6001600160a01b03166001600160a01b0316815260200190815260200160002054815260200190815260200160002060010160006101000a8154816001600160a01b0302191690836001600160a01b031602179055505b601054604051636ef26a0d60e11b8152620100009091046001600160a01b03169063dde4d41a906115399088908f908990899060040161397e565b600060405180830381600087803b15801561155357600080fd5b505af1158015611567573d6000803e3d6000fd5b505050505050505050505050505050565b6000805b82518110156115f2576115d283828151811061159a5761159a61378e565b60200260200101516040516020016115b29190613848565b60408051601f198184030181529190528051602090910120601590612b0b565b156115e05750600192915050565b806115ea816137a4565b91505061157c565b50600092915050565b6011546040516331a9108f60e11b81526004810183905233916001600160a01b031690636352211e90602401602060405180830381865afa158015611644573d6000803e3d6000fd5b505050506040513d601f19601f820116820180604052508101906116689190613898565b6001600160a01b03161461167b57600080fd5b336000908152601a602090815260408083205483526018909152902060030155565b6000601e546001146116ae57600080fd5b6002601e556001600160a01b0382163314806116d9575060035461010090046001600160a01b031633145b6117255760405162461bcd60e51b815260206004820152601c60248201527f4f6e6c7920696e766f696365206f776e6572206f722061646d696e2100000000604482015260640161087b565b601054604051632e8cc77560e01b81523060048201526001600160a01b038481166024830152600060448301819052926201000090041690632e8cc77590606401606060405180830381865afa158015611783573d6000803e3d6000fd5b505050506040513d601f19601f820116820180604052508101906117a791906139ba565b50506001600160a01b038085166000908152601a602090815260408083205483526018825280832060010154601054825163dabb036d60e01b8152925196975090851695939462010000909104169263dabb036d926004808401939192918290030181865afa15801561181e573d6000803e3d6000fd5b505050506040513d601f19601f820116820180604052508101906118429190613898565b6001600160a01b0383811660009081526012602052604090819020549051631e01043960e01b81526004810191909152911690631e01043990602401602060405180830381865afa15801561189b573d6000803e3d6000fd5b505050506040513d601f19601f820116820180604052508101906118bf91906139e8565b9050612710601c6000846001600160a01b03166001600160a01b0316815260200190815260200160002054601060029054906101000a90046001600160a01b03166001600160a01b03166332172e996040518163ffffffff1660e01b8152600401602060405180830381865afa15801561193d573d6000803e3d6000fd5b505050506040513d601f19601f8201168201806040525081019061196191906139e8565b61196b9190613a01565b6119759190613a18565b81101561198157600080fd5b6040516370a0823160e01b81523060048201526000906001600160a01b038416906370a0823190602401602060405180830381865afa1580156119c8573d6000803e3d6000fd5b505050506040513d601f19601f820116820180604052508101906119ec91906139e8565b905060008482106119fd57846119ff565b815b6001600160a01b0388166000908152601a602090815260408083205483526018909152812060050180549293508392909190611a3c90849061396b565b909155505080611a835760405162461bcd60e51b8152602060048201526012602482015271139bdd1a1a5b99c81d1bc81c185e481e595d60721b604482015260640161087b565b6000612710601060029054906101000a90046001600160a01b03166001600160a01b03166356f433526040518163ffffffff1660e01b8152600401602060405180830381865afa158015611adb573d6000803e3d6000fd5b505050506040513d601f19601f82011682018060405250810190611aff91906139e8565b611b099084613a01565b611b139190613a18565b9050611b1f818361377b565b6001600160a01b0386166000908152601c6020526040812080549294508492909190611b4c90849061396b565b9091555050601054611b71906001600160a01b03878116916201000090041683612b23565b611b856001600160a01b0386168984612b23565b6010546001600160a01b038981166000908152601a60209081526040808320548084526018909252918290206005015491516318d3bc2960e01b8152600481019190915260248101919091526201000090920416906318d3bc2990604401600060405180830381600087803b158015611bfd57600080fd5b505af1158015611c11573d6000803e3d6000fd5b50505050858310611c225785611c24565b825b6001601e5598975050505050505050565b6010546201000090046001600160a01b03163303611201576001600160a01b0382166000908152601a60209081526040808320548352601890915281206005018054839290611c8590849061396b565b90915550506001600160a01b0382166000908152601a60209081526040808320548352601d90915281208054839290611cbf90849061396b565b90915550505050565b6005805461074690613731565b336000908152600f602052604090205460ff16611cf157600080fd5b6005611cfd8382613a88565b506006611d0a8282613a88565b506003805486919060ff191660018383811115611d2957611d29613b47565b0217905550506010805461ffff19166101009315159390930260ff1916929092179215159290921790555050565b336000908152600f602052604090205460ff16611d7357600080fd5b6003546001600160a01b038084166101009092041603611d9257600080fd5b6001600160a01b03919091166000908152600f60205260409020805460ff1916911515919091179055565b6006805461074690613731565b6011546040516331a9108f60e11b81526004810183905233916001600160a01b031690636352211e90602401602060405180830381865afa158015611e13573d6000803e3d6000fd5b505050506040513d601f19601f82011682018060405250810190611e379190613898565b6001600160a01b031614611e4a57600080fd5b6001600160a01b0382166000908152601a6020908152604080832054835260189091529020600301548114611e7e57600080fd5b506001600160a01b03166000818152601a60208181526040808420805485526018835281852080546001600160a01b031916339081179091559390925281549284528320919091559181529055565b601e54600114611edc57600080fd5b6002601e55601054604051632e8cc77560e01b81523060048201526001600160a01b038381166024830152600060448301819052926201000090041690632e8cc77590606401606060405180830381865afa158015611f3f573d6000803e3d6000fd5b505050506040513d601f19601f82011682018060405250810190611f6391906139ba565b50506001600160a01b0383166000908152601a60209081526040808320548352601d909152902054909150611f98908261396b565b6001600160a01b038084166000908152601a602090815260408083205483526018909152902060010154919250611fd29116333084612b86565b506001600160a01b03166000908152601a60209081526040808320548352601d9091528120556001601e55565b6010546201000090046001600160a01b0316331461201c57600080fd5b60009182526020829052604090912055565b336000908152600f602052604090205460ff1661204a57600080fd5b336000908152600b6020526040902061206290612ac4565b60000361120357336000818152600e6020526040902082905561120190600c90612af6565b60035461010090046001600160a01b031633146120a357600080fd5b600380546001600160a01b0390921661010002610100600160a81b0319909216919091179055565b6010546201000090046001600160a01b031633146120e857600080fd5b6001600160a01b038083166000908152601a60209081526040808320548352601890915290206001015461095e91168483612b23565b33600061212b82826107c7565b6009805460ff1916851515179055612144600184612bbe565b600a5550505050565b801561223f57601b54604051636833d54f60e01b81526001600160a01b0390911690636833d54f9061218390859060040161301e565b602060405180830381865afa1580156121a0573d6000803e3d6000fd5b505050506040513d601f19601f820116820180604052508101906121c49190613b5d565b6122055760405162461bcd60e51b81526020600482015260126024820152714e6f74206120636f6e74656e74207479706560701b604482015260640161087b565b612239826040516020016122199190613848565b60408051601f198184030181529190528051602090910120601590612bd5565b50611201565b61095e826040516020016122539190613848565b60408051601f198184030181529190528051602090910120601590612be1565b6060816122806001612ac4565b61228a919061377b565b6001600160401b038111156122a1576122a161308f565b6040519080825280602002602001820160405280156122ca578160200160208202803683370190505b509050815b6122d96001612ac4565b811015610c31576122eb600182612ace565b8282815181106122fd576122fd61378e565b6001600160a01b03909216602092830291909101909101528061231f816137a4565b9150506122cf565b60408051600081526020810180835281519020916123489160059101613b7a565b604051602081830303815290604052805190602001201461120157600480546040516331a9108f60e11b81529182018390526001600160a01b0384811692911690636352211e90602401602060405180830381865afa1580156123af573d6000803e3d6000fd5b505050506040513d601f19601f820116820180604052508101906123d39190613898565b6001600160a01b0316146123e657600080fd5b60048054604051636c59a42360e01b81529182018390526000916001600160a01b0390911690636c59a42390602401600060405180830381865afa158015612432573d6000803e3d6000fd5b505050506040513d6000823e601f3d908101601f1916820160405261245a9190810190613bff565b90504281606001511161246c57600080fd5b60048054825160405163ba83da4f60e01b81529283015260009182916001600160a01b03169063ba83da4f90602401600060405180830381865afa1580156124b8573d6000803e3d6000fd5b505050506040513d6000823e601f3d908101601f191682016040526124e09190810190613802565b91509150600080601060029054906101000a90046001600160a01b03166001600160a01b0316633946ea5c6040518163ffffffff1660e01b8152600401602060405180830381865afa15801561253a573d6000803e3d6000fd5b505050506040513d601f19601f8201168201806040525081019061255e9190613898565b6001600160a01b0316634a1396ef86604001516040518263ffffffff1660e01b815260040161258f91815260200190565b60408051808303816000875af11580156125ad573d6000803e3d6000fd5b505050506040513d601f19601f820116820180604052508101906125d19190613cc8565b91509150600080601060029054906101000a90046001600160a01b03166001600160a01b0316633946ea5c6040518163ffffffff1660e01b8152600401602060405180830381865afa15801561262b573d6000803e3d6000fd5b505050506040513d601f19601f8201168201806040525081019061264f9190613898565b6001600160a01b0316634a1396ef866040518263ffffffff1660e01b815260040161267c91815260200190565b60408051808303816000875af115801561269a573d6000803e3d6000fd5b505050506040513d601f19601f820116820180604052508101906126be9190613cc8565b6003805492945090925060ff909116908111156126dd576126dd613b47565b8360038111156126ef576126ef613b47565b1015801561272457506003805460ff169081111561270f5761270f613b47565b81600381111561272157612721613b47565b10155b61272d57600080fd5b600560405160200161273f9190613b7a565b60405160208183030381529060405280519060200120876080015160405160200161276a9190613848565b604051602081830303815290604052805190602001201461278a57600080fd5b600660405160200161279c9190613b7a565b604051602081830303815290604052805190602001208760a001516040516020016127c79190613848565b60405160208183030381529060405280519060200120146127e757600080fd5b60105460ff16158061281157506127ff600185612bed565b80156128115750612811600183612bed565b61281a57600080fd5b600860008760405160200161282f9190613848565b60408051601f198184030181529181528151602092830120835290820192909252016000205460ff161561286257600080fd5b601054610100900460ff161561293f57604080516000815260208101808352815190209161289291899101613848565b60405160208183030381529060405280519060200120036128b257600080fd5b60076000876040516020016128c79190613848565b604051602081830303815290604052805190602001208152602001908152602001600020546000148061293657508660000151600760008860405160200161290f9190613848565b60405160208183030381529060405280519060200120815260200190815260200160002054145b61293f57600080fd5b866000015160076000886040516020016129599190613848565b60405160208183030381529060405280519060200120815260200190815260200160002081905550856040516020016129929190613848565b60408051601f19818403018152918152815160209283012098516000908152918290529020969096555050505050505050565b60006129d2600183612bed565b92915050565b336000908152600f602052604090205460ff166129f457600080fd5b601180546001600160a01b0319166001600160a01b0385161790556014612a1b8282613a88565b50506013805460ff19169315159390931790925550601755565b3381612a4182826107c7565b612a556001600160a01b0385163385612b23565b60105460405163b014da2160e01b815233600482015260248101859052620100009091046001600160a01b03169063b014da2190604401600060405180830381600087803b158015612aa657600080fd5b505af1158015612aba573d6000803e3d6000fd5b5050505050505050565b60006129d2825490565b6000612ada8383612c0f565b9392505050565b6000612ada836001600160a01b038416612c39565b6000612ada836001600160a01b038416612d2c565b60008181526001830160205260408120541515612ada565b6040516001600160a01b03831660248201526044810182905261095e90849063a9059cbb60e01b906064015b60408051601f198184030181529190526020810180516001600160e01b03166001600160e01b031990931692909217909152612d7b565b6040516001600160a01b038085166024830152831660448201526064810182905261095c9085906323b872dd60e01b90608401612b4f565b600081831015612bce5781612ada565b5090919050565b6000612ada8383612d2c565b6000612ada8383612c39565b6001600160a01b03811660009081526001830160205260408120541515612ada565b6000826000018281548110612c2657612c2661378e565b9060005260206000200154905092915050565b60008181526001830160205260408120548015612d22576000612c5d60018361377b565b8554909150600090612c719060019061377b565b9050818114612cd6576000866000018281548110612c9157612c9161378e565b9060005260206000200154905080876000018481548110612cb457612cb461378e565b6000918252602080832090910192909255918252600188019052604090208390555b8554869080612ce757612ce7613cf7565b6001900381819060005260206000200160009055905585600101600086815260200190815260200160002060009055600193505050506129d2565b60009150506129d2565b6000818152600183016020526040812054612d73575081546001818101845560008481526020808220909301849055845484825282860190935260409020919091556129d2565b5060006129d2565b6000612dd0826040518060400160405280602081526020017f5361666545524332303a206c6f772d6c6576656c2063616c6c206661696c6564815250856001600160a01b0316612e4d9092919063ffffffff16565b80519091501561095e5780806020019051810190612dee9190613b5d565b61095e5760405162461bcd60e51b815260206004820152602a60248201527f5361666545524332303a204552433230206f7065726174696f6e20646964206e6044820152691bdd081cdd58d8d9595960b21b606482015260840161087b565b6060612e5c8484600085612e64565b949350505050565b606082471015612ec55760405162461bcd60e51b815260206004820152602660248201527f416464726573733a20696e73756666696369656e742062616c616e636520666f6044820152651c8818d85b1b60d21b606482015260840161087b565b6001600160a01b0385163b612f1c5760405162461bcd60e51b815260206004820152601d60248201527f416464726573733a2063616c6c20746f206e6f6e2d636f6e7472616374000000604482015260640161087b565b600080866001600160a01b03168587604051612f389190613848565b60006040518083038185875af1925050503d8060008114612f75576040519150601f19603f3d011682016040523d82523d6000602084013e612f7a565b606091505b5091509150612f8a828286612f95565b979650505050505050565b60608315612fa4575081612ada565b825115612fb45782518084602001fd5b8160405162461bcd60e51b815260040161087b919061301e565b60005b83811015612fe9578181015183820152602001612fd1565b50506000910152565b6000815180845261300a816020860160208601612fce565b601f01601f19169290920160200192915050565b602081526000612ada6020830184612ff2565b6001600160a01b038116811461120357600080fd5b6000806040838503121561305957600080fd5b823561306481613031565b946020939093013593505050565b60006020828403121561308457600080fd5b8135612ada81613031565b634e487b7160e01b600052604160045260246000fd5b60405160e081016001600160401b03811182821017156130c7576130c761308f565b60405290565b604051601f8201601f191681016001600160401b03811182821017156130f5576130f561308f565b604052919050565b60006001600160401b038211156131165761311661308f565b5060051b60200190565b801515811461120357600080fd5b803561313981613120565b919050565b6000806040838503121561315157600080fd5b82356001600160401b0381111561316757600080fd5b8301601f8101851361317857600080fd5b8035602061318d613188836130fd565b6130cd565b82815260059290921b830181019181810190888411156131ac57600080fd5b938201935b838510156131d35784356131c481613031565b825293820193908201906131b1565b95506131e2905086820161312e565b93505050509250929050565b6000806040838503121561320157600080fd5b82356001600160401b0381111561321757600080fd5b8301601f8101851361322857600080fd5b80356020613238613188836130fd565b82815260059290921b8301810191818101908884111561325757600080fd5b938201935b838510156131d35784358252938201939082019061325c565b60006020828403121561328757600080fd5b5035919050565b6020808252825182820181905260009190848201906040850190845b818110156132cf5783516001600160a01b0316835292840192918401916001016132aa565b50909695505050505050565b6000602080830181845280855180835260408601915060408160051b870101925083870160005b8281101561333057603f1988860301845261331e858351612ff2565b94509285019290850190600101613302565b5092979650505050505050565b60006001600160401b038211156133565761335661308f565b50601f01601f191660200190565b600082601f83011261337557600080fd5b81356133836131888261333d565b81815284602083860101111561339857600080fd5b816020850160208301376000918101602001919091529392505050565b60008060008060008060008060006101208a8c0312156133d457600080fd5b89356133df81613031565b985060208a01356133ef81613031565b975060408a0135965060608a0135955060808a0135945060a08a0135935060c08a0135925060e08a01356001600160401b038082111561342e57600080fd5b61343a8d838e01613364565b93506101008c013591508082111561345157600080fd5b5061345e8c828d01613364565b9150509295985092959850929598565b6000602080838503121561348157600080fd5b82356001600160401b038082111561349857600080fd5b818501915085601f8301126134ac57600080fd5b81356134ba613188826130fd565b81815260059190911b830184019084810190888311156134d957600080fd5b8585015b83811015613511578035858111156134f55760008081fd5b6135038b89838a0101613364565b8452509186019186016134dd565b5098975050505050505050565b6004811061120357600080fd5b600080600080600060a0868803121561354357600080fd5b853561354e8161351e565b9450602086013561355e81613120565b9350604086013561356e81613120565b925060608601356001600160401b038082111561358a57600080fd5b61359689838a01613364565b935060808801359150808211156135ac57600080fd5b506135b988828901613364565b9150509295509295909350565b600080604083850312156135d957600080fd5b82356135e481613031565b915060208301356135f481613120565b809150509250929050565b6000806040838503121561361257600080fd5b50508035926020909101359150565b60008060006060848603121561363657600080fd5b833561364181613031565b9250602084013561365181613031565b929592945050506040919091013590565b6000806040838503121561367557600080fd5b823561306481613120565b6000806040838503121561369357600080fd5b82356001600160401b038111156136a957600080fd5b6136b585828601613364565b92505060208301356135f481613120565b600080600080608085870312156136dc57600080fd5b84356136e781613120565b935060208501356136f781613031565b92506040850135915060608501356001600160401b0381111561371957600080fd5b61372587828801613364565b91505092959194509250565b600181811c9082168061374557607f821691505b602082108103610c3157634e487b7160e01b600052602260045260246000fd5b634e487b7160e01b600052601160045260246000fd5b818103818111156129d2576129d2613765565b634e487b7160e01b600052603260045260246000fd5b6000600182016137b6576137b6613765565b5060010190565b600082601f8301126137ce57600080fd5b81516137dc6131888261333d565b8181528460208386010111156137f157600080fd5b612e5c826020830160208701612fce565b6000806040838503121561381557600080fd5b82516001600160401b0381111561382b57600080fd5b613837858286016137bd565b925050602083015190509250929050565b6000825161385a818460208701612fce565b9190910192915050565b60006020828403121561387657600080fd5b81516001600160401b0381111561388c57600080fd5b612e5c848285016137bd565b6000602082840312156138aa57600080fd5b8151612ada81613031565b6000806000806000806000806000806101408b8d0312156138d557600080fd5b8a516138e081613031565b60208c0151909a506138f181613031565b60408c015190995061390281613031565b60608c015190985061391381613031565b8097505060808b0151955060a08b0151945060c08b0151935060e08b015192506101008b01516003811061394657600080fd5b6101208c015190925061395881613120565b809150509295989b9194979a5092959850565b808201808211156129d2576129d2613765565b8481526001600160a01b03841660208201526080604082018190526000906139a890830185612ff2565b8281036060840152612f8a8185612ff2565b6000806000606084860312156139cf57600080fd5b8351925060208401519150604084015190509250925092565b6000602082840312156139fa57600080fd5b5051919050565b80820281158282048414176129d2576129d2613765565b600082613a3557634e487b7160e01b600052601260045260246000fd5b500490565b601f82111561095e57600081815260208120601f850160051c81016020861015613a615750805b601f850160051c820191505b81811015613a8057828155600101613a6d565b505050505050565b81516001600160401b03811115613aa157613aa161308f565b613ab581613aaf8454613731565b84613a3a565b602080601f831160018114613aea5760008415613ad25750858301515b600019600386901b1c1916600185901b178555613a80565b600085815260208120601f198616915b82811015613b1957888601518255948401946001909101908401613afa565b5085821015613b375787850151600019600388901b60f8161c191681555b5050505050600190811b01905550565b634e487b7160e01b600052602160045260246000fd5b600060208284031215613b6f57600080fd5b8151612ada81613120565b6000808354613b8881613731565b60018281168015613ba05760018114613bb557613be4565b60ff1984168752821515830287019450613be4565b8760005260208060002060005b85811015613bdb5781548a820152908401908201613bc2565b50505082870194505b50929695505050505050565b80516002811061313957600080fd5b600060208284031215613c1157600080fd5b81516001600160401b0380821115613c2857600080fd5b9083019060e08286031215613c3c57600080fd5b613c446130a5565b82518152602083015160208201526040830151604082015260608301516060820152608083015182811115613c7857600080fd5b613c84878286016137bd565b60808301525060a083015182811115613c9c57600080fd5b613ca8878286016137bd565b60a083015250613cba60c08401613bf0565b60c082015295945050505050565b60008060408385031215613cdb57600080fd5b8251613ce681613031565b60208401519092506135f48161351e565b634e487b7160e01b600052603160045260246000fdfea26469706673582212204097f372879b2e96c61a2ea56e53f4d6f62c213926abd8566522977079f6f88c64736f6c63430008110033a2646970667358221220921d785f1c5d21455c3a240d377d44ec31f0e0212a9e8a86c97eeb1a966e76ce64736f6c63430008110033",
    "sourcePath": "/home/tetevi/Documents/solidly/contracts/SponsorCard.sol",
    "compiler": {
        "name": "solc",
        "version": "0.8.17+commit.8df45f5f"
    },
    "functionHashes": {
        "createGauge(uint256,address,string,string,string)": "ba2bc86b"
    },
    "gasEstimates": {
        "creation": {
            "codeDepositCost": "3508000",
            "executionCost": "infinite",
            "totalCost": "infinite"
        },
        "external": {
            "createGauge(uint256,address,string,string,string)": "infinite"
        }
    }
}